{
  "contracts/RevvCityWarriors.sol": {
    "RevvCityWarriors": {
      "abi": [
        {
          "inputs": [
            {
              "internalType": "string",
              "name": "_tokenName",
              "type": "string"
            },
            {
              "internalType": "string",
              "name": "_tokenSymbol",
              "type": "string"
            },
            {
              "internalType": "uint256",
              "name": "_cost",
              "type": "uint256"
            },
            {
              "internalType": "uint256",
              "name": "_maxSupply",
              "type": "uint256"
            },
            {
              "internalType": "uint256",
              "name": "_maxMintAmountPerTx",
              "type": "uint256"
            },
            {
              "internalType": "string",
              "name": "_hiddenMetadataUri",
              "type": "string"
            }
          ],
          "stateMutability": "nonpayable",
          "type": "constructor"
        },
        {
          "inputs": [],
          "name": "ApprovalCallerNotOwnerNorApproved",
          "type": "error"
        },
        {
          "inputs": [],
          "name": "ApprovalQueryForNonexistentToken",
          "type": "error"
        },
        {
          "inputs": [],
          "name": "ApprovalToCurrentOwner",
          "type": "error"
        },
        {
          "inputs": [],
          "name": "ApproveToCaller",
          "type": "error"
        },
        {
          "inputs": [],
          "name": "BalanceQueryForZeroAddress",
          "type": "error"
        },
        {
          "inputs": [],
          "name": "MintToZeroAddress",
          "type": "error"
        },
        {
          "inputs": [],
          "name": "MintZeroQuantity",
          "type": "error"
        },
        {
          "inputs": [],
          "name": "OwnerQueryForNonexistentToken",
          "type": "error"
        },
        {
          "inputs": [],
          "name": "TransferCallerNotOwnerNorApproved",
          "type": "error"
        },
        {
          "inputs": [],
          "name": "TransferFromIncorrectOwner",
          "type": "error"
        },
        {
          "inputs": [],
          "name": "TransferToNonERC721ReceiverImplementer",
          "type": "error"
        },
        {
          "inputs": [],
          "name": "TransferToZeroAddress",
          "type": "error"
        },
        {
          "anonymous": false,
          "inputs": [
            {
              "indexed": true,
              "internalType": "address",
              "name": "owner",
              "type": "address"
            },
            {
              "indexed": true,
              "internalType": "address",
              "name": "approved",
              "type": "address"
            },
            {
              "indexed": true,
              "internalType": "uint256",
              "name": "tokenId",
              "type": "uint256"
            }
          ],
          "name": "Approval",
          "type": "event"
        },
        {
          "anonymous": false,
          "inputs": [
            {
              "indexed": true,
              "internalType": "address",
              "name": "owner",
              "type": "address"
            },
            {
              "indexed": true,
              "internalType": "address",
              "name": "operator",
              "type": "address"
            },
            {
              "indexed": false,
              "internalType": "bool",
              "name": "approved",
              "type": "bool"
            }
          ],
          "name": "ApprovalForAll",
          "type": "event"
        },
        {
          "anonymous": false,
          "inputs": [
            {
              "indexed": true,
              "internalType": "address",
              "name": "previousOwner",
              "type": "address"
            },
            {
              "indexed": true,
              "internalType": "address",
              "name": "newOwner",
              "type": "address"
            }
          ],
          "name": "OwnershipTransferred",
          "type": "event"
        },
        {
          "anonymous": false,
          "inputs": [
            {
              "indexed": true,
              "internalType": "address",
              "name": "from",
              "type": "address"
            },
            {
              "indexed": true,
              "internalType": "address",
              "name": "to",
              "type": "address"
            },
            {
              "indexed": true,
              "internalType": "uint256",
              "name": "tokenId",
              "type": "uint256"
            }
          ],
          "name": "Transfer",
          "type": "event"
        },
        {
          "inputs": [
            {
              "internalType": "address",
              "name": "to",
              "type": "address"
            },
            {
              "internalType": "uint256",
              "name": "tokenId",
              "type": "uint256"
            }
          ],
          "name": "approve",
          "outputs": [],
          "stateMutability": "nonpayable",
          "type": "function"
        },
        {
          "inputs": [
            {
              "internalType": "address",
              "name": "owner",
              "type": "address"
            }
          ],
          "name": "balanceOf",
          "outputs": [
            {
              "internalType": "uint256",
              "name": "",
              "type": "uint256"
            }
          ],
          "stateMutability": "view",
          "type": "function"
        },
        {
          "inputs": [],
          "name": "cost",
          "outputs": [
            {
              "internalType": "uint256",
              "name": "",
              "type": "uint256"
            }
          ],
          "stateMutability": "view",
          "type": "function"
        },
        {
          "inputs": [
            {
              "internalType": "uint256",
              "name": "tokenId",
              "type": "uint256"
            }
          ],
          "name": "getApproved",
          "outputs": [
            {
              "internalType": "address",
              "name": "",
              "type": "address"
            }
          ],
          "stateMutability": "view",
          "type": "function"
        },
        {
          "inputs": [],
          "name": "hiddenMetadataUri",
          "outputs": [
            {
              "internalType": "string",
              "name": "",
              "type": "string"
            }
          ],
          "stateMutability": "view",
          "type": "function"
        },
        {
          "inputs": [
            {
              "internalType": "address",
              "name": "owner",
              "type": "address"
            },
            {
              "internalType": "address",
              "name": "operator",
              "type": "address"
            }
          ],
          "name": "isApprovedForAll",
          "outputs": [
            {
              "internalType": "bool",
              "name": "",
              "type": "bool"
            }
          ],
          "stateMutability": "view",
          "type": "function"
        },
        {
          "inputs": [],
          "name": "maxMintAmountPerTx",
          "outputs": [
            {
              "internalType": "uint256",
              "name": "",
              "type": "uint256"
            }
          ],
          "stateMutability": "view",
          "type": "function"
        },
        {
          "inputs": [],
          "name": "maxSupply",
          "outputs": [
            {
              "internalType": "uint256",
              "name": "",
              "type": "uint256"
            }
          ],
          "stateMutability": "view",
          "type": "function"
        },
        {
          "inputs": [],
          "name": "merkleRoot",
          "outputs": [
            {
              "internalType": "bytes32",
              "name": "",
              "type": "bytes32"
            }
          ],
          "stateMutability": "view",
          "type": "function"
        },
        {
          "inputs": [
            {
              "internalType": "uint256",
              "name": "_mintAmount",
              "type": "uint256"
            }
          ],
          "name": "mint",
          "outputs": [],
          "stateMutability": "payable",
          "type": "function"
        },
        {
          "inputs": [
            {
              "internalType": "uint256",
              "name": "_mintAmount",
              "type": "uint256"
            },
            {
              "internalType": "address",
              "name": "_receiver",
              "type": "address"
            }
          ],
          "name": "mintForAddress",
          "outputs": [],
          "stateMutability": "nonpayable",
          "type": "function"
        },
        {
          "inputs": [],
          "name": "name",
          "outputs": [
            {
              "internalType": "string",
              "name": "",
              "type": "string"
            }
          ],
          "stateMutability": "view",
          "type": "function"
        },
        {
          "inputs": [],
          "name": "owner",
          "outputs": [
            {
              "internalType": "address",
              "name": "",
              "type": "address"
            }
          ],
          "stateMutability": "view",
          "type": "function"
        },
        {
          "inputs": [
            {
              "internalType": "uint256",
              "name": "tokenId",
              "type": "uint256"
            }
          ],
          "name": "ownerOf",
          "outputs": [
            {
              "internalType": "address",
              "name": "",
              "type": "address"
            }
          ],
          "stateMutability": "view",
          "type": "function"
        },
        {
          "inputs": [],
          "name": "paused",
          "outputs": [
            {
              "internalType": "bool",
              "name": "",
              "type": "bool"
            }
          ],
          "stateMutability": "view",
          "type": "function"
        },
        {
          "inputs": [],
          "name": "renounceOwnership",
          "outputs": [],
          "stateMutability": "nonpayable",
          "type": "function"
        },
        {
          "inputs": [],
          "name": "revealed",
          "outputs": [
            {
              "internalType": "bool",
              "name": "",
              "type": "bool"
            }
          ],
          "stateMutability": "view",
          "type": "function"
        },
        {
          "inputs": [
            {
              "internalType": "address",
              "name": "from",
              "type": "address"
            },
            {
              "internalType": "address",
              "name": "to",
              "type": "address"
            },
            {
              "internalType": "uint256",
              "name": "tokenId",
              "type": "uint256"
            }
          ],
          "name": "safeTransferFrom",
          "outputs": [],
          "stateMutability": "nonpayable",
          "type": "function"
        },
        {
          "inputs": [
            {
              "internalType": "address",
              "name": "from",
              "type": "address"
            },
            {
              "internalType": "address",
              "name": "to",
              "type": "address"
            },
            {
              "internalType": "uint256",
              "name": "tokenId",
              "type": "uint256"
            },
            {
              "internalType": "bytes",
              "name": "_data",
              "type": "bytes"
            }
          ],
          "name": "safeTransferFrom",
          "outputs": [],
          "stateMutability": "nonpayable",
          "type": "function"
        },
        {
          "inputs": [
            {
              "internalType": "address",
              "name": "operator",
              "type": "address"
            },
            {
              "internalType": "bool",
              "name": "approved",
              "type": "bool"
            }
          ],
          "name": "setApprovalForAll",
          "outputs": [],
          "stateMutability": "nonpayable",
          "type": "function"
        },
        {
          "inputs": [
            {
              "internalType": "uint256",
              "name": "_cost",
              "type": "uint256"
            }
          ],
          "name": "setCost",
          "outputs": [],
          "stateMutability": "nonpayable",
          "type": "function"
        },
        {
          "inputs": [
            {
              "internalType": "string",
              "name": "_hiddenMetadataUri",
              "type": "string"
            }
          ],
          "name": "setHiddenMetadataUri",
          "outputs": [],
          "stateMutability": "nonpayable",
          "type": "function"
        },
        {
          "inputs": [
            {
              "internalType": "uint256",
              "name": "_maxMintAmountPerTx",
              "type": "uint256"
            }
          ],
          "name": "setMaxMintAmountPerTx",
          "outputs": [],
          "stateMutability": "nonpayable",
          "type": "function"
        },
        {
          "inputs": [
            {
              "internalType": "bytes32",
              "name": "_merkleRoot",
              "type": "bytes32"
            }
          ],
          "name": "setMerkleRoot",
          "outputs": [],
          "stateMutability": "nonpayable",
          "type": "function"
        },
        {
          "inputs": [
            {
              "internalType": "bool",
              "name": "_state",
              "type": "bool"
            }
          ],
          "name": "setPaused",
          "outputs": [],
          "stateMutability": "nonpayable",
          "type": "function"
        },
        {
          "inputs": [
            {
              "internalType": "bool",
              "name": "_state",
              "type": "bool"
            }
          ],
          "name": "setRevealed",
          "outputs": [],
          "stateMutability": "nonpayable",
          "type": "function"
        },
        {
          "inputs": [
            {
              "internalType": "string",
              "name": "_uriPrefix",
              "type": "string"
            }
          ],
          "name": "setUriPrefix",
          "outputs": [],
          "stateMutability": "nonpayable",
          "type": "function"
        },
        {
          "inputs": [
            {
              "internalType": "string",
              "name": "_uriSuffix",
              "type": "string"
            }
          ],
          "name": "setUriSuffix",
          "outputs": [],
          "stateMutability": "nonpayable",
          "type": "function"
        },
        {
          "inputs": [
            {
              "internalType": "bool",
              "name": "_state",
              "type": "bool"
            }
          ],
          "name": "setWhitelistMintEnabled",
          "outputs": [],
          "stateMutability": "nonpayable",
          "type": "function"
        },
        {
          "inputs": [
            {
              "internalType": "bytes4",
              "name": "interfaceId",
              "type": "bytes4"
            }
          ],
          "name": "supportsInterface",
          "outputs": [
            {
              "internalType": "bool",
              "name": "",
              "type": "bool"
            }
          ],
          "stateMutability": "view",
          "type": "function"
        },
        {
          "inputs": [],
          "name": "symbol",
          "outputs": [
            {
              "internalType": "string",
              "name": "",
              "type": "string"
            }
          ],
          "stateMutability": "view",
          "type": "function"
        },
        {
          "inputs": [
            {
              "internalType": "uint256",
              "name": "_tokenId",
              "type": "uint256"
            }
          ],
          "name": "tokenURI",
          "outputs": [
            {
              "internalType": "string",
              "name": "",
              "type": "string"
            }
          ],
          "stateMutability": "view",
          "type": "function"
        },
        {
          "inputs": [],
          "name": "totalSupply",
          "outputs": [
            {
              "internalType": "uint256",
              "name": "",
              "type": "uint256"
            }
          ],
          "stateMutability": "view",
          "type": "function"
        },
        {
          "inputs": [
            {
              "internalType": "address",
              "name": "from",
              "type": "address"
            },
            {
              "internalType": "address",
              "name": "to",
              "type": "address"
            },
            {
              "internalType": "uint256",
              "name": "tokenId",
              "type": "uint256"
            }
          ],
          "name": "transferFrom",
          "outputs": [],
          "stateMutability": "nonpayable",
          "type": "function"
        },
        {
          "inputs": [
            {
              "internalType": "address",
              "name": "newOwner",
              "type": "address"
            }
          ],
          "name": "transferOwnership",
          "outputs": [],
          "stateMutability": "nonpayable",
          "type": "function"
        },
        {
          "inputs": [],
          "name": "uriPrefix",
          "outputs": [
            {
              "internalType": "string",
              "name": "",
              "type": "string"
            }
          ],
          "stateMutability": "view",
          "type": "function"
        },
        {
          "inputs": [],
          "name": "uriSuffix",
          "outputs": [
            {
              "internalType": "string",
              "name": "",
              "type": "string"
            }
          ],
          "stateMutability": "view",
          "type": "function"
        },
        {
          "inputs": [
            {
              "internalType": "address",
              "name": "_owner",
              "type": "address"
            }
          ],
          "name": "walletOfOwner",
          "outputs": [
            {
              "internalType": "uint256[]",
              "name": "",
              "type": "uint256[]"
            }
          ],
          "stateMutability": "view",
          "type": "function"
        },
        {
          "inputs": [
            {
              "internalType": "address",
              "name": "",
              "type": "address"
            }
          ],
          "name": "whitelistClaimed",
          "outputs": [
            {
              "internalType": "bool",
              "name": "",
              "type": "bool"
            }
          ],
          "stateMutability": "view",
          "type": "function"
        },
        {
          "inputs": [
            {
              "internalType": "uint256",
              "name": "_mintAmount",
              "type": "uint256"
            },
            {
              "internalType": "bytes32[]",
              "name": "_merkleProof",
              "type": "bytes32[]"
            }
          ],
          "name": "whitelistMint",
          "outputs": [],
          "stateMutability": "payable",
          "type": "function"
        },
        {
          "inputs": [],
          "name": "whitelistMintEnabled",
          "outputs": [
            {
              "internalType": "bool",
              "name": "",
              "type": "bool"
            }
          ],
          "stateMutability": "view",
          "type": "function"
        },
        {
          "inputs": [],
          "name": "withdraw",
          "outputs": [],
          "stateMutability": "nonpayable",
          "type": "function"
        }
      ],
      "evm": {
        "bytecode": {
          "linkReferences": {},
          "object": "60a06040819052600060808190526200001b91600c916200025d565b5060408051808201909152600580825264173539b7b760d91b60209092019182526200004a91600d916200025d565b506012805462ffffff191660011790553480156200006757600080fd5b5060405162002ba738038062002ba78339810160408190526200008a91620003d0565b855186908690620000a39060029060208501906200025d565b508051620000b99060039060208401906200025d565b5050600160005550620000cc3362000103565b6001600955620000dc8462000155565b6010839055620000ec82620001a9565b620000f781620001f9565b505050505050620004ba565b600880546001600160a01b038381166001600160a01b0319831681179093556040519116919082907f8be0079c531659141344cd1fd0a4f28419497f9722a3daafe3b4186f6b6457e090600090a35050565b6008546001600160a01b03163314620001a45760405162461bcd60e51b8152602060048201819052602482015260008051602062002b8783398151915260448201526064015b60405180910390fd5b600f55565b6008546001600160a01b03163314620001f45760405162461bcd60e51b8152602060048201819052602482015260008051602062002b8783398151915260448201526064016200019b565b601155565b6008546001600160a01b03163314620002445760405162461bcd60e51b8152602060048201819052602482015260008051602062002b8783398151915260448201526064016200019b565b80516200025990600e9060208401906200025d565b5050565b8280546200026b906200047d565b90600052602060002090601f0160209004810192826200028f5760008555620002da565b82601f10620002aa57805160ff1916838001178555620002da565b82800160010185558215620002da579182015b82811115620002da578251825591602001919060010190620002bd565b50620002e8929150620002ec565b5090565b5b80821115620002e85760008155600101620002ed565b634e487b7160e01b600052604160045260246000fd5b600082601f8301126200032b57600080fd5b81516001600160401b038082111562000348576200034862000303565b604051601f8301601f19908116603f0116810190828211818310171562000373576200037362000303565b816040528381526020925086838588010111156200039057600080fd5b600091505b83821015620003b4578582018301518183018401529082019062000395565b83821115620003c65760008385830101525b9695505050505050565b60008060008060008060c08789031215620003ea57600080fd5b86516001600160401b03808211156200040257600080fd5b620004108a838b0162000319565b975060208901519150808211156200042757600080fd5b620004358a838b0162000319565b965060408901519550606089015194506080890151935060a08901519150808211156200046157600080fd5b506200047089828a0162000319565b9150509295509295509295565b600181811c908216806200049257607f821691505b60208210811415620004b457634e487b7160e01b600052602260045260246000fd5b50919050565b6126bd80620004ca6000396000f3fe6080604052600436106102515760003560e01c806370a0823111610139578063b071401b116100b6578063d5abeb011161007a578063d5abeb011461069d578063db4bec44146106b3578063e0a80853146106e3578063e985e9c514610703578063efbd73f41461074c578063f2fde38b1461076c57600080fd5b8063b071401b1461060a578063b767a0981461062a578063b88d4fde1461064a578063c87b56dd1461066a578063d2cab0561461068a57600080fd5b806394354fd0116100fd57806394354fd01461059757806395d89b41146105ad578063a0712d68146105c2578063a22cb465146105d5578063a45ba8e7146105f557600080fd5b806370a0823114610504578063715018a6146105245780637cb64759146105395780637ec4a659146105595780638da5cb5b1461057957600080fd5b80633ccfd60b116101d2578063518302271161019657806351830227146104615780635503a0e8146104815780635c975abb1461049657806362b99ad4146104b05780636352211e146104c55780636caede3d146104e557600080fd5b80633ccfd60b146103bf57806342842e0e146103d4578063438b6300146103f457806344a0d68a146104215780634fdd43cb1461044157600080fd5b806316ba10e01161021957806316ba10e01461032b57806316c38b3c1461034b57806318160ddd1461036b57806323b872dd146103895780632eb4a7ab146103a957600080fd5b806301ffc9a71461025657806306fdde031461028b578063081812fc146102ad578063095ea7b3146102e557806313faede614610307575b600080fd5b34801561026257600080fd5b50610276610271366004611fd1565b61078c565b60405190151581526020015b60405180910390f35b34801561029757600080fd5b506102a06107de565b6040516102829190612046565b3480156102b957600080fd5b506102cd6102c8366004612059565b610870565b6040516001600160a01b039091168152602001610282565b3480156102f157600080fd5b5061030561030036600461208e565b6108b4565b005b34801561031357600080fd5b5061031d600f5481565b604051908152602001610282565b34801561033757600080fd5b50610305610346366004612143565b610942565b34801561035757600080fd5b5061030561036636600461219b565b61098c565b34801561037757600080fd5b5061031d600154600054036000190190565b34801561039557600080fd5b506103056103a43660046121b6565b6109c9565b3480156103b557600080fd5b5061031d600a5481565b3480156103cb57600080fd5b506103056109d4565b3480156103e057600080fd5b506103056103ef3660046121b6565b610b4d565b34801561040057600080fd5b5061041461040f3660046121f2565b610b68565b604051610282919061220d565b34801561042d57600080fd5b5061030561043c366004612059565b610caf565b34801561044d57600080fd5b5061030561045c366004612143565b610cde565b34801561046d57600080fd5b506012546102769062010000900460ff1681565b34801561048d57600080fd5b506102a0610d1b565b3480156104a257600080fd5b506012546102769060ff1681565b3480156104bc57600080fd5b506102a0610da9565b3480156104d157600080fd5b506102cd6104e0366004612059565b610db6565b3480156104f157600080fd5b5060125461027690610100900460ff1681565b34801561051057600080fd5b5061031d61051f3660046121f2565b610dc8565b34801561053057600080fd5b50610305610e16565b34801561054557600080fd5b50610305610554366004612059565b610e4c565b34801561056557600080fd5b50610305610574366004612143565b610e7b565b34801561058557600080fd5b506008546001600160a01b03166102cd565b3480156105a357600080fd5b5061031d60115481565b3480156105b957600080fd5b506102a0610eb8565b6103056105d0366004612059565b610ec7565b3480156105e157600080fd5b506103056105f0366004612251565b610fe4565b34801561060157600080fd5b506102a061107a565b34801561061657600080fd5b50610305610625366004612059565b611087565b34801561063657600080fd5b5061030561064536600461219b565b6110b6565b34801561065657600080fd5b50610305610665366004612284565b6110fa565b34801561067657600080fd5b506102a0610685366004612059565b61114b565b6103056106983660046122ff565b6112bb565b3480156106a957600080fd5b5061031d60105481565b3480156106bf57600080fd5b506102766106ce3660046121f2565b600b6020526000908152604090205460ff1681565b3480156106ef57600080fd5b506103056106fe36600461219b565b611520565b34801561070f57600080fd5b5061027661071e36600461237d565b6001600160a01b03918216600090815260076020908152604080832093909416825291909152205460ff1690565b34801561075857600080fd5b506103056107673660046123a7565b611566565b34801561077857600080fd5b506103056107873660046121f2565b611606565b60006001600160e01b031982166380ac58cd60e01b14806107bd57506001600160e01b03198216635b5e139f60e01b145b806107d857506301ffc9a760e01b6001600160e01b03198316145b92915050565b6060600280546107ed906123ca565b80601f0160208091040260200160405190810160405280929190818152602001828054610819906123ca565b80156108665780601f1061083b57610100808354040283529160200191610866565b820191906000526020600020905b81548152906001019060200180831161084957829003601f168201915b5050505050905090565b600061087b826116a1565b610898576040516333d1c03960e21b815260040160405180910390fd5b506000908152600660205260409020546001600160a01b031690565b60006108bf82610db6565b9050806001600160a01b0316836001600160a01b031614156108f45760405163250fdee360e21b815260040160405180910390fd5b336001600160a01b038216148015906109145750610912813361071e565b155b15610932576040516367d9dca160e11b815260040160405180910390fd5b61093d8383836116da565b505050565b6008546001600160a01b031633146109755760405162461bcd60e51b815260040161096c90612405565b60405180910390fd5b805161098890600d906020840190611f22565b5050565b6008546001600160a01b031633146109b65760405162461bcd60e51b815260040161096c90612405565b6012805460ff1916911515919091179055565b61093d838383611736565b6008546001600160a01b031633146109fe5760405162461bcd60e51b815260040161096c90612405565b60026009541415610a515760405162461bcd60e51b815260206004820152601f60248201527f5265656e7472616e637947756172643a207265656e7472616e742063616c6c00604482015260640161096c565b6002600955600073cd65b839e01b1ce853ba82424b233dfad239af306064610a7a476005612450565b610a849190612485565b604051600081818185875af1925050503d8060008114610ac0576040519150601f19603f3d011682016040523d82523d6000602084013e610ac5565b606091505b5050905080610ad357600080fd5b6000610ae76008546001600160a01b031690565b6001600160a01b03164760405160006040518083038185875af1925050503d8060008114610b31576040519150601f19603f3d011682016040523d82523d6000602084013e610b36565b606091505b5050905080610b4457600080fd5b50506001600955565b61093d838383604051806020016040528060008152506110fa565b60606000610b7583610dc8565b90506000816001600160401b03811115610b9157610b916120b8565b604051908082528060200260200182016040528015610bba578160200160208202803683370190505b50905060016000805b8482108015610bd457506010548311155b15610ca457600083815260046020908152604091829020825160608101845290546001600160a01b0381168252600160a01b81046001600160401b031692820192909252600160e01b90910460ff161580159282018390529091610c41575080516001600160a01b031615155b15610c4b57805191505b876001600160a01b0316826001600160a01b03161415610c915783858481518110610c7857610c78612499565b602090810291909101015282610c8d816124af565b9350505b83610c9b816124af565b94505050610bc3565b509195945050505050565b6008546001600160a01b03163314610cd95760405162461bcd60e51b815260040161096c90612405565b600f55565b6008546001600160a01b03163314610d085760405162461bcd60e51b815260040161096c90612405565b805161098890600e906020840190611f22565b600d8054610d28906123ca565b80601f0160208091040260200160405190810160405280929190818152602001828054610d54906123ca565b8015610da15780601f10610d7657610100808354040283529160200191610da1565b820191906000526020600020905b815481529060010190602001808311610d8457829003601f168201915b505050505081565b600c8054610d28906123ca565b6000610dc182611924565b5192915050565b60006001600160a01b038216610df1576040516323d3ad8160e21b815260040160405180910390fd5b506001600160a01b03166000908152600560205260409020546001600160401b031690565b6008546001600160a01b03163314610e405760405162461bcd60e51b815260040161096c90612405565b610e4a6000611a4b565b565b6008546001600160a01b03163314610e765760405162461bcd60e51b815260040161096c90612405565b600a55565b6008546001600160a01b03163314610ea55760405162461bcd60e51b815260040161096c90612405565b805161098890600c906020840190611f22565b6060600380546107ed906123ca565b80600081118015610eda57506011548111155b610ef65760405162461bcd60e51b815260040161096c906124ca565b60105481610f0b600154600054036000190190565b610f1591906124f8565b1115610f335760405162461bcd60e51b815260040161096c90612510565b8180600f54610f429190612450565b341015610f875760405162461bcd60e51b8152602060048201526013602482015272496e73756666696369656e742066756e64732160681b604482015260640161096c565b60125460ff1615610fda5760405162461bcd60e51b815260206004820152601760248201527f54686520636f6e74726163742069732070617573656421000000000000000000604482015260640161096c565b61093d3384611a9d565b6001600160a01b03821633141561100e5760405163b06307db60e01b815260040160405180910390fd5b3360008181526007602090815260408083206001600160a01b03871680855290835292819020805460ff191686151590811790915590519081529192917f17307eab39ab6107e8899845ad3d59bd9653f200f220920489ca2b5937696c31910160405180910390a35050565b600e8054610d28906123ca565b6008546001600160a01b031633146110b15760405162461bcd60e51b815260040161096c90612405565b601155565b6008546001600160a01b031633146110e05760405162461bcd60e51b815260040161096c90612405565b601280549115156101000261ff0019909216919091179055565b611105848484611736565b6001600160a01b0383163b15158015611127575061112584848484611ab7565b155b15611145576040516368d2bf6b60e11b815260040160405180910390fd5b50505050565b6060611156826116a1565b6111ba5760405162461bcd60e51b815260206004820152602f60248201527f4552433732314d657461646174613a2055524920717565727920666f72206e6f60448201526e3732bc34b9ba32b73a103a37b5b2b760891b606482015260840161096c565b60125462010000900460ff1661125c57600e80546111d7906123ca565b80601f0160208091040260200160405190810160405280929190818152602001828054611203906123ca565b80156112505780601f1061122557610100808354040283529160200191611250565b820191906000526020600020905b81548152906001019060200180831161123357829003601f168201915b50505050509050919050565b6000611266611baf565b9050600081511161128657604051806020016040528060008152506112b4565b8061129084611bbe565b600d6040516020016112a49392919061253e565b6040516020818303038152906040525b9392505050565b826000811180156112ce57506011548111155b6112ea5760405162461bcd60e51b815260040161096c906124ca565b601054816112ff600154600054036000190190565b61130991906124f8565b11156113275760405162461bcd60e51b815260040161096c90612510565b8380600f546113369190612450565b34101561137b5760405162461bcd60e51b8152602060048201526013602482015272496e73756666696369656e742066756e64732160681b604482015260640161096c565b601254610100900460ff166113dd5760405162461bcd60e51b815260206004820152602260248201527f5468652077686974656c6973742073616c65206973206e6f7420656e61626c65604482015261642160f01b606482015260840161096c565b336000908152600b602052604090205460ff161561143d5760405162461bcd60e51b815260206004820152601860248201527f4164647265737320616c726561647920636c61696d6564210000000000000000604482015260640161096c565b6040516bffffffffffffffffffffffff193360601b1660208201526000906034016040516020818303038152906040528051906020012090506114b785858080602002602001604051908101604052809392919081815260200183836020028082843760009201919091525050600a549150849050611cbb565b6114f45760405162461bcd60e51b815260206004820152600e60248201526d496e76616c69642070726f6f662160901b604482015260640161096c565b336000818152600b60205260409020805460ff191660011790556115189087611a9d565b505050505050565b6008546001600160a01b0316331461154a5760405162461bcd60e51b815260040161096c90612405565b60128054911515620100000262ff000019909216919091179055565b8160008111801561157957506011548111155b6115955760405162461bcd60e51b815260040161096c906124ca565b601054816115aa600154600054036000190190565b6115b491906124f8565b11156115d25760405162461bcd60e51b815260040161096c90612510565b6008546001600160a01b031633146115fc5760405162461bcd60e51b815260040161096c90612405565b61093d8284611a9d565b6008546001600160a01b031633146116305760405162461bcd60e51b815260040161096c90612405565b6001600160a01b0381166116955760405162461bcd60e51b815260206004820152602660248201527f4f776e61626c653a206e6577206f776e657220697320746865207a65726f206160448201526564647265737360d01b606482015260840161096c565b61169e81611a4b565b50565b6000816001111580156116b5575060005482105b80156107d8575050600090815260046020526040902054600160e01b900460ff161590565b60008281526006602052604080822080546001600160a01b0319166001600160a01b0387811691821790925591518593918516917f8c5be1e5ebec7d5bd14f71427d1e84f3dd0314c0f7b2291e5b200ac8c7c3b92591a4505050565b600061174182611924565b9050836001600160a01b031681600001516001600160a01b0316146117785760405162a1148160e81b815260040160405180910390fd5b6000336001600160a01b03861614806117965750611796853361071e565b806117b15750336117a684610870565b6001600160a01b0316145b9050806117d157604051632ce44b5f60e11b815260040160405180910390fd5b6001600160a01b0384166117f857604051633a954ecd60e21b815260040160405180910390fd5b611804600084876116da565b6001600160a01b038581166000908152600560209081526040808320805467ffffffffffffffff198082166001600160401b0392831660001901831617909255898616808652838620805493841693831660019081018416949094179055898652600490945282852080546001600160e01b031916909417600160a01b429092169190910217835587018084529220805491939091166118d85760005482146118d857805460208601516001600160401b0316600160a01b026001600160e01b03199091166001600160a01b038a16171781555b50505082846001600160a01b0316866001600160a01b03167fddf252ad1be2c89b69c2b068fc378daa952ba7f163c4a11628f55a4df523b3ef60405160405180910390a45b5050505050565b60408051606081018252600080825260208201819052918101919091528180600111158015611954575060005481105b15611a3257600081815260046020908152604091829020825160608101845290546001600160a01b0381168252600160a01b81046001600160401b031692820192909252600160e01b90910460ff16151591810182905290611a305780516001600160a01b0316156119c7579392505050565b5060001901600081815260046020908152604091829020825160608101845290546001600160a01b038116808352600160a01b82046001600160401b031693830193909352600160e01b900460ff1615159281019290925215611a2b579392505050565b6119c7565b505b604051636f96cda160e11b815260040160405180910390fd5b600880546001600160a01b038381166001600160a01b0319831681179093556040519116919082907f8be0079c531659141344cd1fd0a4f28419497f9722a3daafe3b4186f6b6457e090600090a35050565b610988828260405180602001604052806000815250611cd1565b604051630a85bd0160e11b81526000906001600160a01b0385169063150b7a0290611aec903390899088908890600401612602565b602060405180830381600087803b158015611b0657600080fd5b505af1925050508015611b36575060408051601f3d908101601f19168201909252611b339181019061263f565b60015b611b91573d808015611b64576040519150601f19603f3d011682016040523d82523d6000602084013e611b69565b606091505b508051611b89576040516368d2bf6b60e11b815260040160405180910390fd5b805181602001fd5b6001600160e01b031916630a85bd0160e11b1490505b949350505050565b6060600c80546107ed906123ca565b606081611be25750506040805180820190915260018152600360fc1b602082015290565b8160005b8115611c0c5780611bf6816124af565b9150611c059050600a83612485565b9150611be6565b6000816001600160401b03811115611c2657611c266120b8565b6040519080825280601f01601f191660200182016040528015611c50576020820181803683370190505b5090505b8415611ba757611c6560018361265c565b9150611c72600a86612673565b611c7d9060306124f8565b60f81b818381518110611c9257611c92612499565b60200101906001600160f81b031916908160001a905350611cb4600a86612485565b9450611c54565b600082611cc88584611cde565b14949350505050565b61093d8383836001611d52565b600081815b8451811015611d4a576000858281518110611d0057611d00612499565b60200260200101519050808311611d265760008381526020829052604090209250611d37565b600081815260208490526040902092505b5080611d42816124af565b915050611ce3565b509392505050565b6000546001600160a01b038516611d7b57604051622e076360e81b815260040160405180910390fd5b83611d995760405163b562e8dd60e01b815260040160405180910390fd5b6001600160a01b038516600081815260056020908152604080832080546fffffffffffffffffffffffffffffffff1981166001600160401b038083168c0181169182176801000000000000000067ffffffffffffffff1990941690921783900481168c01811690920217909155858452600490925290912080546001600160e01b031916909217600160a01b429092169190910217905580808501838015611e4a57506001600160a01b0387163b15155b15611ed3575b60405182906001600160a01b038916906000907fddf252ad1be2c89b69c2b068fc378daa952ba7f163c4a11628f55a4df523b3ef908290a4611e9b6000888480600101955088611ab7565b611eb8576040516368d2bf6b60e11b815260040160405180910390fd5b80821415611e50578260005414611ece57600080fd5b611f19565b5b6040516001830192906001600160a01b038916906000907fddf252ad1be2c89b69c2b068fc378daa952ba7f163c4a11628f55a4df523b3ef908290a480821415611ed4575b5060005561191d565b828054611f2e906123ca565b90600052602060002090601f016020900481019282611f505760008555611f96565b82601f10611f6957805160ff1916838001178555611f96565b82800160010185558215611f96579182015b82811115611f96578251825591602001919060010190611f7b565b50611fa2929150611fa6565b5090565b5b80821115611fa25760008155600101611fa7565b6001600160e01b03198116811461169e57600080fd5b600060208284031215611fe357600080fd5b81356112b481611fbb565b60005b83811015612009578181015183820152602001611ff1565b838111156111455750506000910152565b60008151808452612032816020860160208601611fee565b601f01601f19169290920160200192915050565b6020815260006112b4602083018461201a565b60006020828403121561206b57600080fd5b5035919050565b80356001600160a01b038116811461208957600080fd5b919050565b600080604083850312156120a157600080fd5b6120aa83612072565b946020939093013593505050565b634e487b7160e01b600052604160045260246000fd5b60006001600160401b03808411156120e8576120e86120b8565b604051601f8501601f19908116603f01168101908282118183101715612110576121106120b8565b8160405280935085815286868601111561212957600080fd5b858560208301376000602087830101525050509392505050565b60006020828403121561215557600080fd5b81356001600160401b0381111561216b57600080fd5b8201601f8101841361217c57600080fd5b611ba7848235602084016120ce565b8035801515811461208957600080fd5b6000602082840312156121ad57600080fd5b6112b48261218b565b6000806000606084860312156121cb57600080fd5b6121d484612072565b92506121e260208501612072565b9150604084013590509250925092565b60006020828403121561220457600080fd5b6112b482612072565b6020808252825182820181905260009190848201906040850190845b8181101561224557835183529284019291840191600101612229565b50909695505050505050565b6000806040838503121561226457600080fd5b61226d83612072565b915061227b6020840161218b565b90509250929050565b6000806000806080858703121561229a57600080fd5b6122a385612072565b93506122b160208601612072565b92506040850135915060608501356001600160401b038111156122d357600080fd5b8501601f810187136122e457600080fd5b6122f3878235602084016120ce565b91505092959194509250565b60008060006040848603121561231457600080fd5b8335925060208401356001600160401b038082111561233257600080fd5b818601915086601f83011261234657600080fd5b81358181111561235557600080fd5b8760208260051b850101111561236a57600080fd5b6020830194508093505050509250925092565b6000806040838503121561239057600080fd5b61239983612072565b915061227b60208401612072565b600080604083850312156123ba57600080fd5b8235915061227b60208401612072565b600181811c908216806123de57607f821691505b602082108114156123ff57634e487b7160e01b600052602260045260246000fd5b50919050565b6020808252818101527f4f776e61626c653a2063616c6c6572206973206e6f7420746865206f776e6572604082015260600190565b634e487b7160e01b600052601160045260246000fd5b600081600019048311821515161561246a5761246a61243a565b500290565b634e487b7160e01b600052601260045260246000fd5b6000826124945761249461246f565b500490565b634e487b7160e01b600052603260045260246000fd5b60006000198214156124c3576124c361243a565b5060010190565b602080825260149082015273496e76616c6964206d696e7420616d6f756e742160601b604082015260600190565b6000821982111561250b5761250b61243a565b500190565b6020808252601490820152734d617820737570706c792065786365656465642160601b604082015260600190565b6000845160206125518285838a01611fee565b8551918401916125648184848a01611fee565b8554920191600090600181811c908083168061258157607f831692505b85831081141561259f57634e487b7160e01b85526022600452602485fd5b8080156125b357600181146125c4576125f1565b60ff198516885283880195506125f1565b60008b81526020902060005b858110156125e95781548a8201529084019088016125d0565b505083880195505b50939b9a5050505050505050505050565b6001600160a01b03858116825284166020820152604081018390526080606082018190526000906126359083018461201a565b9695505050505050565b60006020828403121561265157600080fd5b81516112b481611fbb565b60008282101561266e5761266e61243a565b500390565b6000826126825761268261246f565b50069056fea2646970667358221220138450b22e90a334269ebbe2ecbe931f4b51d81a58e324791376766bea89b0dc64736f6c634300080900334f776e61626c653a2063616c6c6572206973206e6f7420746865206f776e6572",
          "opcodes": "PUSH1 0xA0 PUSH1 0x40 DUP2 SWAP1 MSTORE PUSH1 0x0 PUSH1 0x80 DUP2 SWAP1 MSTORE PUSH3 0x1B SWAP2 PUSH1 0xC SWAP2 PUSH3 0x25D JUMP JUMPDEST POP PUSH1 0x40 DUP1 MLOAD DUP1 DUP3 ADD SWAP1 SWAP2 MSTORE PUSH1 0x5 DUP1 DUP3 MSTORE PUSH5 0x173539B7B7 PUSH1 0xD9 SHL PUSH1 0x20 SWAP1 SWAP3 ADD SWAP2 DUP3 MSTORE PUSH3 0x4A SWAP2 PUSH1 0xD SWAP2 PUSH3 0x25D JUMP JUMPDEST POP PUSH1 0x12 DUP1 SLOAD PUSH3 0xFFFFFF NOT AND PUSH1 0x1 OR SWAP1 SSTORE CALLVALUE DUP1 ISZERO PUSH3 0x67 JUMPI PUSH1 0x0 DUP1 REVERT JUMPDEST POP PUSH1 0x40 MLOAD PUSH3 0x2BA7 CODESIZE SUB DUP1 PUSH3 0x2BA7 DUP4 CODECOPY DUP2 ADD PUSH1 0x40 DUP2 SWAP1 MSTORE PUSH3 0x8A SWAP2 PUSH3 0x3D0 JUMP JUMPDEST DUP6 MLOAD DUP7 SWAP1 DUP7 SWAP1 PUSH3 0xA3 SWAP1 PUSH1 0x2 SWAP1 PUSH1 0x20 DUP6 ADD SWAP1 PUSH3 0x25D JUMP JUMPDEST POP DUP1 MLOAD PUSH3 0xB9 SWAP1 PUSH1 0x3 SWAP1 PUSH1 0x20 DUP5 ADD SWAP1 PUSH3 0x25D JUMP JUMPDEST POP POP PUSH1 0x1 PUSH1 0x0 SSTORE POP PUSH3 0xCC CALLER PUSH3 0x103 JUMP JUMPDEST PUSH1 0x1 PUSH1 0x9 SSTORE PUSH3 0xDC DUP5 PUSH3 0x155 JUMP JUMPDEST PUSH1 0x10 DUP4 SWAP1 SSTORE PUSH3 0xEC DUP3 PUSH3 0x1A9 JUMP JUMPDEST PUSH3 0xF7 DUP2 PUSH3 0x1F9 JUMP JUMPDEST POP POP POP POP POP POP PUSH3 0x4BA JUMP JUMPDEST PUSH1 0x8 DUP1 SLOAD PUSH1 0x1 PUSH1 0x1 PUSH1 0xA0 SHL SUB DUP4 DUP2 AND PUSH1 0x1 PUSH1 0x1 PUSH1 0xA0 SHL SUB NOT DUP4 AND DUP2 OR SWAP1 SWAP4 SSTORE PUSH1 0x40 MLOAD SWAP2 AND SWAP2 SWAP1 DUP3 SWAP1 PUSH32 0x8BE0079C531659141344CD1FD0A4F28419497F9722A3DAAFE3B4186F6B6457E0 SWAP1 PUSH1 0x0 SWAP1 LOG3 POP POP JUMP JUMPDEST PUSH1 0x8 SLOAD PUSH1 0x1 PUSH1 0x1 PUSH1 0xA0 SHL SUB AND CALLER EQ PUSH3 0x1A4 JUMPI PUSH1 0x40 MLOAD PUSH3 0x461BCD PUSH1 0xE5 SHL DUP2 MSTORE PUSH1 0x20 PUSH1 0x4 DUP3 ADD DUP2 SWAP1 MSTORE PUSH1 0x24 DUP3 ADD MSTORE PUSH1 0x0 DUP1 MLOAD PUSH1 0x20 PUSH3 0x2B87 DUP4 CODECOPY DUP2 MLOAD SWAP2 MSTORE PUSH1 0x44 DUP3 ADD MSTORE PUSH1 0x64 ADD JUMPDEST PUSH1 0x40 MLOAD DUP1 SWAP2 SUB SWAP1 REVERT JUMPDEST PUSH1 0xF SSTORE JUMP JUMPDEST PUSH1 0x8 SLOAD PUSH1 0x1 PUSH1 0x1 PUSH1 0xA0 SHL SUB AND CALLER EQ PUSH3 0x1F4 JUMPI PUSH1 0x40 MLOAD PUSH3 0x461BCD PUSH1 0xE5 SHL DUP2 MSTORE PUSH1 0x20 PUSH1 0x4 DUP3 ADD DUP2 SWAP1 MSTORE PUSH1 0x24 DUP3 ADD MSTORE PUSH1 0x0 DUP1 MLOAD PUSH1 0x20 PUSH3 0x2B87 DUP4 CODECOPY DUP2 MLOAD SWAP2 MSTORE PUSH1 0x44 DUP3 ADD MSTORE PUSH1 0x64 ADD PUSH3 0x19B JUMP JUMPDEST PUSH1 0x11 SSTORE JUMP JUMPDEST PUSH1 0x8 SLOAD PUSH1 0x1 PUSH1 0x1 PUSH1 0xA0 SHL SUB AND CALLER EQ PUSH3 0x244 JUMPI PUSH1 0x40 MLOAD PUSH3 0x461BCD PUSH1 0xE5 SHL DUP2 MSTORE PUSH1 0x20 PUSH1 0x4 DUP3 ADD DUP2 SWAP1 MSTORE PUSH1 0x24 DUP3 ADD MSTORE PUSH1 0x0 DUP1 MLOAD PUSH1 0x20 PUSH3 0x2B87 DUP4 CODECOPY DUP2 MLOAD SWAP2 MSTORE PUSH1 0x44 DUP3 ADD MSTORE PUSH1 0x64 ADD PUSH3 0x19B JUMP JUMPDEST DUP1 MLOAD PUSH3 0x259 SWAP1 PUSH1 0xE SWAP1 PUSH1 0x20 DUP5 ADD SWAP1 PUSH3 0x25D JUMP JUMPDEST POP POP JUMP JUMPDEST DUP3 DUP1 SLOAD PUSH3 0x26B SWAP1 PUSH3 0x47D JUMP JUMPDEST SWAP1 PUSH1 0x0 MSTORE PUSH1 0x20 PUSH1 0x0 KECCAK256 SWAP1 PUSH1 0x1F ADD PUSH1 0x20 SWAP1 DIV DUP2 ADD SWAP3 DUP3 PUSH3 0x28F JUMPI PUSH1 0x0 DUP6 SSTORE PUSH3 0x2DA JUMP JUMPDEST DUP3 PUSH1 0x1F LT PUSH3 0x2AA JUMPI DUP1 MLOAD PUSH1 0xFF NOT AND DUP4 DUP1 ADD OR DUP6 SSTORE PUSH3 0x2DA JUMP JUMPDEST DUP3 DUP1 ADD PUSH1 0x1 ADD DUP6 SSTORE DUP3 ISZERO PUSH3 0x2DA JUMPI SWAP2 DUP3 ADD JUMPDEST DUP3 DUP2 GT ISZERO PUSH3 0x2DA JUMPI DUP3 MLOAD DUP3 SSTORE SWAP2 PUSH1 0x20 ADD SWAP2 SWAP1 PUSH1 0x1 ADD SWAP1 PUSH3 0x2BD JUMP JUMPDEST POP PUSH3 0x2E8 SWAP3 SWAP2 POP PUSH3 0x2EC JUMP JUMPDEST POP SWAP1 JUMP JUMPDEST JUMPDEST DUP1 DUP3 GT ISZERO PUSH3 0x2E8 JUMPI PUSH1 0x0 DUP2 SSTORE PUSH1 0x1 ADD PUSH3 0x2ED JUMP JUMPDEST PUSH4 0x4E487B71 PUSH1 0xE0 SHL PUSH1 0x0 MSTORE PUSH1 0x41 PUSH1 0x4 MSTORE PUSH1 0x24 PUSH1 0x0 REVERT JUMPDEST PUSH1 0x0 DUP3 PUSH1 0x1F DUP4 ADD SLT PUSH3 0x32B JUMPI PUSH1 0x0 DUP1 REVERT JUMPDEST DUP2 MLOAD PUSH1 0x1 PUSH1 0x1 PUSH1 0x40 SHL SUB DUP1 DUP3 GT ISZERO PUSH3 0x348 JUMPI PUSH3 0x348 PUSH3 0x303 JUMP JUMPDEST PUSH1 0x40 MLOAD PUSH1 0x1F DUP4 ADD PUSH1 0x1F NOT SWAP1 DUP2 AND PUSH1 0x3F ADD AND DUP2 ADD SWAP1 DUP3 DUP3 GT DUP2 DUP4 LT OR ISZERO PUSH3 0x373 JUMPI PUSH3 0x373 PUSH3 0x303 JUMP JUMPDEST DUP2 PUSH1 0x40 MSTORE DUP4 DUP2 MSTORE PUSH1 0x20 SWAP3 POP DUP7 DUP4 DUP6 DUP9 ADD ADD GT ISZERO PUSH3 0x390 JUMPI PUSH1 0x0 DUP1 REVERT JUMPDEST PUSH1 0x0 SWAP2 POP JUMPDEST DUP4 DUP3 LT ISZERO PUSH3 0x3B4 JUMPI DUP6 DUP3 ADD DUP4 ADD MLOAD DUP2 DUP4 ADD DUP5 ADD MSTORE SWAP1 DUP3 ADD SWAP1 PUSH3 0x395 JUMP JUMPDEST DUP4 DUP3 GT ISZERO PUSH3 0x3C6 JUMPI PUSH1 0x0 DUP4 DUP6 DUP4 ADD ADD MSTORE JUMPDEST SWAP7 SWAP6 POP POP POP POP POP POP JUMP JUMPDEST PUSH1 0x0 DUP1 PUSH1 0x0 DUP1 PUSH1 0x0 DUP1 PUSH1 0xC0 DUP8 DUP10 SUB SLT ISZERO PUSH3 0x3EA JUMPI PUSH1 0x0 DUP1 REVERT JUMPDEST DUP7 MLOAD PUSH1 0x1 PUSH1 0x1 PUSH1 0x40 SHL SUB DUP1 DUP3 GT ISZERO PUSH3 0x402 JUMPI PUSH1 0x0 DUP1 REVERT JUMPDEST PUSH3 0x410 DUP11 DUP4 DUP12 ADD PUSH3 0x319 JUMP JUMPDEST SWAP8 POP PUSH1 0x20 DUP10 ADD MLOAD SWAP2 POP DUP1 DUP3 GT ISZERO PUSH3 0x427 JUMPI PUSH1 0x0 DUP1 REVERT JUMPDEST PUSH3 0x435 DUP11 DUP4 DUP12 ADD PUSH3 0x319 JUMP JUMPDEST SWAP7 POP PUSH1 0x40 DUP10 ADD MLOAD SWAP6 POP PUSH1 0x60 DUP10 ADD MLOAD SWAP5 POP PUSH1 0x80 DUP10 ADD MLOAD SWAP4 POP PUSH1 0xA0 DUP10 ADD MLOAD SWAP2 POP DUP1 DUP3 GT ISZERO PUSH3 0x461 JUMPI PUSH1 0x0 DUP1 REVERT JUMPDEST POP PUSH3 0x470 DUP10 DUP3 DUP11 ADD PUSH3 0x319 JUMP JUMPDEST SWAP2 POP POP SWAP3 SWAP6 POP SWAP3 SWAP6 POP SWAP3 SWAP6 JUMP JUMPDEST PUSH1 0x1 DUP2 DUP2 SHR SWAP1 DUP3 AND DUP1 PUSH3 0x492 JUMPI PUSH1 0x7F DUP3 AND SWAP2 POP JUMPDEST PUSH1 0x20 DUP3 LT DUP2 EQ ISZERO PUSH3 0x4B4 JUMPI PUSH4 0x4E487B71 PUSH1 0xE0 SHL PUSH1 0x0 MSTORE PUSH1 0x22 PUSH1 0x4 MSTORE PUSH1 0x24 PUSH1 0x0 REVERT JUMPDEST POP SWAP2 SWAP1 POP JUMP JUMPDEST PUSH2 0x26BD DUP1 PUSH3 0x4CA PUSH1 0x0 CODECOPY PUSH1 0x0 RETURN INVALID PUSH1 0x80 PUSH1 0x40 MSTORE PUSH1 0x4 CALLDATASIZE LT PUSH2 0x251 JUMPI PUSH1 0x0 CALLDATALOAD PUSH1 0xE0 SHR DUP1 PUSH4 0x70A08231 GT PUSH2 0x139 JUMPI DUP1 PUSH4 0xB071401B GT PUSH2 0xB6 JUMPI DUP1 PUSH4 0xD5ABEB01 GT PUSH2 0x7A JUMPI DUP1 PUSH4 0xD5ABEB01 EQ PUSH2 0x69D JUMPI DUP1 PUSH4 0xDB4BEC44 EQ PUSH2 0x6B3 JUMPI DUP1 PUSH4 0xE0A80853 EQ PUSH2 0x6E3 JUMPI DUP1 PUSH4 0xE985E9C5 EQ PUSH2 0x703 JUMPI DUP1 PUSH4 0xEFBD73F4 EQ PUSH2 0x74C JUMPI DUP1 PUSH4 0xF2FDE38B EQ PUSH2 0x76C JUMPI PUSH1 0x0 DUP1 REVERT JUMPDEST DUP1 PUSH4 0xB071401B EQ PUSH2 0x60A JUMPI DUP1 PUSH4 0xB767A098 EQ PUSH2 0x62A JUMPI DUP1 PUSH4 0xB88D4FDE EQ PUSH2 0x64A JUMPI DUP1 PUSH4 0xC87B56DD EQ PUSH2 0x66A JUMPI DUP1 PUSH4 0xD2CAB056 EQ PUSH2 0x68A JUMPI PUSH1 0x0 DUP1 REVERT JUMPDEST DUP1 PUSH4 0x94354FD0 GT PUSH2 0xFD JUMPI DUP1 PUSH4 0x94354FD0 EQ PUSH2 0x597 JUMPI DUP1 PUSH4 0x95D89B41 EQ PUSH2 0x5AD JUMPI DUP1 PUSH4 0xA0712D68 EQ PUSH2 0x5C2 JUMPI DUP1 PUSH4 0xA22CB465 EQ PUSH2 0x5D5 JUMPI DUP1 PUSH4 0xA45BA8E7 EQ PUSH2 0x5F5 JUMPI PUSH1 0x0 DUP1 REVERT JUMPDEST DUP1 PUSH4 0x70A08231 EQ PUSH2 0x504 JUMPI DUP1 PUSH4 0x715018A6 EQ PUSH2 0x524 JUMPI DUP1 PUSH4 0x7CB64759 EQ PUSH2 0x539 JUMPI DUP1 PUSH4 0x7EC4A659 EQ PUSH2 0x559 JUMPI DUP1 PUSH4 0x8DA5CB5B EQ PUSH2 0x579 JUMPI PUSH1 0x0 DUP1 REVERT JUMPDEST DUP1 PUSH4 0x3CCFD60B GT PUSH2 0x1D2 JUMPI DUP1 PUSH4 0x51830227 GT PUSH2 0x196 JUMPI DUP1 PUSH4 0x51830227 EQ PUSH2 0x461 JUMPI DUP1 PUSH4 0x5503A0E8 EQ PUSH2 0x481 JUMPI DUP1 PUSH4 0x5C975ABB EQ PUSH2 0x496 JUMPI DUP1 PUSH4 0x62B99AD4 EQ PUSH2 0x4B0 JUMPI DUP1 PUSH4 0x6352211E EQ PUSH2 0x4C5 JUMPI DUP1 PUSH4 0x6CAEDE3D EQ PUSH2 0x4E5 JUMPI PUSH1 0x0 DUP1 REVERT JUMPDEST DUP1 PUSH4 0x3CCFD60B EQ PUSH2 0x3BF JUMPI DUP1 PUSH4 0x42842E0E EQ PUSH2 0x3D4 JUMPI DUP1 PUSH4 0x438B6300 EQ PUSH2 0x3F4 JUMPI DUP1 PUSH4 0x44A0D68A EQ PUSH2 0x421 JUMPI DUP1 PUSH4 0x4FDD43CB EQ PUSH2 0x441 JUMPI PUSH1 0x0 DUP1 REVERT JUMPDEST DUP1 PUSH4 0x16BA10E0 GT PUSH2 0x219 JUMPI DUP1 PUSH4 0x16BA10E0 EQ PUSH2 0x32B JUMPI DUP1 PUSH4 0x16C38B3C EQ PUSH2 0x34B JUMPI DUP1 PUSH4 0x18160DDD EQ PUSH2 0x36B JUMPI DUP1 PUSH4 0x23B872DD EQ PUSH2 0x389 JUMPI DUP1 PUSH4 0x2EB4A7AB EQ PUSH2 0x3A9 JUMPI PUSH1 0x0 DUP1 REVERT JUMPDEST DUP1 PUSH4 0x1FFC9A7 EQ PUSH2 0x256 JUMPI DUP1 PUSH4 0x6FDDE03 EQ PUSH2 0x28B JUMPI DUP1 PUSH4 0x81812FC EQ PUSH2 0x2AD JUMPI DUP1 PUSH4 0x95EA7B3 EQ PUSH2 0x2E5 JUMPI DUP1 PUSH4 0x13FAEDE6 EQ PUSH2 0x307 JUMPI JUMPDEST PUSH1 0x0 DUP1 REVERT JUMPDEST CALLVALUE DUP1 ISZERO PUSH2 0x262 JUMPI PUSH1 0x0 DUP1 REVERT JUMPDEST POP PUSH2 0x276 PUSH2 0x271 CALLDATASIZE PUSH1 0x4 PUSH2 0x1FD1 JUMP JUMPDEST PUSH2 0x78C JUMP JUMPDEST PUSH1 0x40 MLOAD SWAP1 ISZERO ISZERO DUP2 MSTORE PUSH1 0x20 ADD JUMPDEST PUSH1 0x40 MLOAD DUP1 SWAP2 SUB SWAP1 RETURN JUMPDEST CALLVALUE DUP1 ISZERO PUSH2 0x297 JUMPI PUSH1 0x0 DUP1 REVERT JUMPDEST POP PUSH2 0x2A0 PUSH2 0x7DE JUMP JUMPDEST PUSH1 0x40 MLOAD PUSH2 0x282 SWAP2 SWAP1 PUSH2 0x2046 JUMP JUMPDEST CALLVALUE DUP1 ISZERO PUSH2 0x2B9 JUMPI PUSH1 0x0 DUP1 REVERT JUMPDEST POP PUSH2 0x2CD PUSH2 0x2C8 CALLDATASIZE PUSH1 0x4 PUSH2 0x2059 JUMP JUMPDEST PUSH2 0x870 JUMP JUMPDEST PUSH1 0x40 MLOAD PUSH1 0x1 PUSH1 0x1 PUSH1 0xA0 SHL SUB SWAP1 SWAP2 AND DUP2 MSTORE PUSH1 0x20 ADD PUSH2 0x282 JUMP JUMPDEST CALLVALUE DUP1 ISZERO PUSH2 0x2F1 JUMPI PUSH1 0x0 DUP1 REVERT JUMPDEST POP PUSH2 0x305 PUSH2 0x300 CALLDATASIZE PUSH1 0x4 PUSH2 0x208E JUMP JUMPDEST PUSH2 0x8B4 JUMP JUMPDEST STOP JUMPDEST CALLVALUE DUP1 ISZERO PUSH2 0x313 JUMPI PUSH1 0x0 DUP1 REVERT JUMPDEST POP PUSH2 0x31D PUSH1 0xF SLOAD DUP2 JUMP JUMPDEST PUSH1 0x40 MLOAD SWAP1 DUP2 MSTORE PUSH1 0x20 ADD PUSH2 0x282 JUMP JUMPDEST CALLVALUE DUP1 ISZERO PUSH2 0x337 JUMPI PUSH1 0x0 DUP1 REVERT JUMPDEST POP PUSH2 0x305 PUSH2 0x346 CALLDATASIZE PUSH1 0x4 PUSH2 0x2143 JUMP JUMPDEST PUSH2 0x942 JUMP JUMPDEST CALLVALUE DUP1 ISZERO PUSH2 0x357 JUMPI PUSH1 0x0 DUP1 REVERT JUMPDEST POP PUSH2 0x305 PUSH2 0x366 CALLDATASIZE PUSH1 0x4 PUSH2 0x219B JUMP JUMPDEST PUSH2 0x98C JUMP JUMPDEST CALLVALUE DUP1 ISZERO PUSH2 0x377 JUMPI PUSH1 0x0 DUP1 REVERT JUMPDEST POP PUSH2 0x31D PUSH1 0x1 SLOAD PUSH1 0x0 SLOAD SUB PUSH1 0x0 NOT ADD SWAP1 JUMP JUMPDEST CALLVALUE DUP1 ISZERO PUSH2 0x395 JUMPI PUSH1 0x0 DUP1 REVERT JUMPDEST POP PUSH2 0x305 PUSH2 0x3A4 CALLDATASIZE PUSH1 0x4 PUSH2 0x21B6 JUMP JUMPDEST PUSH2 0x9C9 JUMP JUMPDEST CALLVALUE DUP1 ISZERO PUSH2 0x3B5 JUMPI PUSH1 0x0 DUP1 REVERT JUMPDEST POP PUSH2 0x31D PUSH1 0xA SLOAD DUP2 JUMP JUMPDEST CALLVALUE DUP1 ISZERO PUSH2 0x3CB JUMPI PUSH1 0x0 DUP1 REVERT JUMPDEST POP PUSH2 0x305 PUSH2 0x9D4 JUMP JUMPDEST CALLVALUE DUP1 ISZERO PUSH2 0x3E0 JUMPI PUSH1 0x0 DUP1 REVERT JUMPDEST POP PUSH2 0x305 PUSH2 0x3EF CALLDATASIZE PUSH1 0x4 PUSH2 0x21B6 JUMP JUMPDEST PUSH2 0xB4D JUMP JUMPDEST CALLVALUE DUP1 ISZERO PUSH2 0x400 JUMPI PUSH1 0x0 DUP1 REVERT JUMPDEST POP PUSH2 0x414 PUSH2 0x40F CALLDATASIZE PUSH1 0x4 PUSH2 0x21F2 JUMP JUMPDEST PUSH2 0xB68 JUMP JUMPDEST PUSH1 0x40 MLOAD PUSH2 0x282 SWAP2 SWAP1 PUSH2 0x220D JUMP JUMPDEST CALLVALUE DUP1 ISZERO PUSH2 0x42D JUMPI PUSH1 0x0 DUP1 REVERT JUMPDEST POP PUSH2 0x305 PUSH2 0x43C CALLDATASIZE PUSH1 0x4 PUSH2 0x2059 JUMP JUMPDEST PUSH2 0xCAF JUMP JUMPDEST CALLVALUE DUP1 ISZERO PUSH2 0x44D JUMPI PUSH1 0x0 DUP1 REVERT JUMPDEST POP PUSH2 0x305 PUSH2 0x45C CALLDATASIZE PUSH1 0x4 PUSH2 0x2143 JUMP JUMPDEST PUSH2 0xCDE JUMP JUMPDEST CALLVALUE DUP1 ISZERO PUSH2 0x46D JUMPI PUSH1 0x0 DUP1 REVERT JUMPDEST POP PUSH1 0x12 SLOAD PUSH2 0x276 SWAP1 PUSH3 0x10000 SWAP1 DIV PUSH1 0xFF AND DUP2 JUMP JUMPDEST CALLVALUE DUP1 ISZERO PUSH2 0x48D JUMPI PUSH1 0x0 DUP1 REVERT JUMPDEST POP PUSH2 0x2A0 PUSH2 0xD1B JUMP JUMPDEST CALLVALUE DUP1 ISZERO PUSH2 0x4A2 JUMPI PUSH1 0x0 DUP1 REVERT JUMPDEST POP PUSH1 0x12 SLOAD PUSH2 0x276 SWAP1 PUSH1 0xFF AND DUP2 JUMP JUMPDEST CALLVALUE DUP1 ISZERO PUSH2 0x4BC JUMPI PUSH1 0x0 DUP1 REVERT JUMPDEST POP PUSH2 0x2A0 PUSH2 0xDA9 JUMP JUMPDEST CALLVALUE DUP1 ISZERO PUSH2 0x4D1 JUMPI PUSH1 0x0 DUP1 REVERT JUMPDEST POP PUSH2 0x2CD PUSH2 0x4E0 CALLDATASIZE PUSH1 0x4 PUSH2 0x2059 JUMP JUMPDEST PUSH2 0xDB6 JUMP JUMPDEST CALLVALUE DUP1 ISZERO PUSH2 0x4F1 JUMPI PUSH1 0x0 DUP1 REVERT JUMPDEST POP PUSH1 0x12 SLOAD PUSH2 0x276 SWAP1 PUSH2 0x100 SWAP1 DIV PUSH1 0xFF AND DUP2 JUMP JUMPDEST CALLVALUE DUP1 ISZERO PUSH2 0x510 JUMPI PUSH1 0x0 DUP1 REVERT JUMPDEST POP PUSH2 0x31D PUSH2 0x51F CALLDATASIZE PUSH1 0x4 PUSH2 0x21F2 JUMP JUMPDEST PUSH2 0xDC8 JUMP JUMPDEST CALLVALUE DUP1 ISZERO PUSH2 0x530 JUMPI PUSH1 0x0 DUP1 REVERT JUMPDEST POP PUSH2 0x305 PUSH2 0xE16 JUMP JUMPDEST CALLVALUE DUP1 ISZERO PUSH2 0x545 JUMPI PUSH1 0x0 DUP1 REVERT JUMPDEST POP PUSH2 0x305 PUSH2 0x554 CALLDATASIZE PUSH1 0x4 PUSH2 0x2059 JUMP JUMPDEST PUSH2 0xE4C JUMP JUMPDEST CALLVALUE DUP1 ISZERO PUSH2 0x565 JUMPI PUSH1 0x0 DUP1 REVERT JUMPDEST POP PUSH2 0x305 PUSH2 0x574 CALLDATASIZE PUSH1 0x4 PUSH2 0x2143 JUMP JUMPDEST PUSH2 0xE7B JUMP JUMPDEST CALLVALUE DUP1 ISZERO PUSH2 0x585 JUMPI PUSH1 0x0 DUP1 REVERT JUMPDEST POP PUSH1 0x8 SLOAD PUSH1 0x1 PUSH1 0x1 PUSH1 0xA0 SHL SUB AND PUSH2 0x2CD JUMP JUMPDEST CALLVALUE DUP1 ISZERO PUSH2 0x5A3 JUMPI PUSH1 0x0 DUP1 REVERT JUMPDEST POP PUSH2 0x31D PUSH1 0x11 SLOAD DUP2 JUMP JUMPDEST CALLVALUE DUP1 ISZERO PUSH2 0x5B9 JUMPI PUSH1 0x0 DUP1 REVERT JUMPDEST POP PUSH2 0x2A0 PUSH2 0xEB8 JUMP JUMPDEST PUSH2 0x305 PUSH2 0x5D0 CALLDATASIZE PUSH1 0x4 PUSH2 0x2059 JUMP JUMPDEST PUSH2 0xEC7 JUMP JUMPDEST CALLVALUE DUP1 ISZERO PUSH2 0x5E1 JUMPI PUSH1 0x0 DUP1 REVERT JUMPDEST POP PUSH2 0x305 PUSH2 0x5F0 CALLDATASIZE PUSH1 0x4 PUSH2 0x2251 JUMP JUMPDEST PUSH2 0xFE4 JUMP JUMPDEST CALLVALUE DUP1 ISZERO PUSH2 0x601 JUMPI PUSH1 0x0 DUP1 REVERT JUMPDEST POP PUSH2 0x2A0 PUSH2 0x107A JUMP JUMPDEST CALLVALUE DUP1 ISZERO PUSH2 0x616 JUMPI PUSH1 0x0 DUP1 REVERT JUMPDEST POP PUSH2 0x305 PUSH2 0x625 CALLDATASIZE PUSH1 0x4 PUSH2 0x2059 JUMP JUMPDEST PUSH2 0x1087 JUMP JUMPDEST CALLVALUE DUP1 ISZERO PUSH2 0x636 JUMPI PUSH1 0x0 DUP1 REVERT JUMPDEST POP PUSH2 0x305 PUSH2 0x645 CALLDATASIZE PUSH1 0x4 PUSH2 0x219B JUMP JUMPDEST PUSH2 0x10B6 JUMP JUMPDEST CALLVALUE DUP1 ISZERO PUSH2 0x656 JUMPI PUSH1 0x0 DUP1 REVERT JUMPDEST POP PUSH2 0x305 PUSH2 0x665 CALLDATASIZE PUSH1 0x4 PUSH2 0x2284 JUMP JUMPDEST PUSH2 0x10FA JUMP JUMPDEST CALLVALUE DUP1 ISZERO PUSH2 0x676 JUMPI PUSH1 0x0 DUP1 REVERT JUMPDEST POP PUSH2 0x2A0 PUSH2 0x685 CALLDATASIZE PUSH1 0x4 PUSH2 0x2059 JUMP JUMPDEST PUSH2 0x114B JUMP JUMPDEST PUSH2 0x305 PUSH2 0x698 CALLDATASIZE PUSH1 0x4 PUSH2 0x22FF JUMP JUMPDEST PUSH2 0x12BB JUMP JUMPDEST CALLVALUE DUP1 ISZERO PUSH2 0x6A9 JUMPI PUSH1 0x0 DUP1 REVERT JUMPDEST POP PUSH2 0x31D PUSH1 0x10 SLOAD DUP2 JUMP JUMPDEST CALLVALUE DUP1 ISZERO PUSH2 0x6BF JUMPI PUSH1 0x0 DUP1 REVERT JUMPDEST POP PUSH2 0x276 PUSH2 0x6CE CALLDATASIZE PUSH1 0x4 PUSH2 0x21F2 JUMP JUMPDEST PUSH1 0xB PUSH1 0x20 MSTORE PUSH1 0x0 SWAP1 DUP2 MSTORE PUSH1 0x40 SWAP1 KECCAK256 SLOAD PUSH1 0xFF AND DUP2 JUMP JUMPDEST CALLVALUE DUP1 ISZERO PUSH2 0x6EF JUMPI PUSH1 0x0 DUP1 REVERT JUMPDEST POP PUSH2 0x305 PUSH2 0x6FE CALLDATASIZE PUSH1 0x4 PUSH2 0x219B JUMP JUMPDEST PUSH2 0x1520 JUMP JUMPDEST CALLVALUE DUP1 ISZERO PUSH2 0x70F JUMPI PUSH1 0x0 DUP1 REVERT JUMPDEST POP PUSH2 0x276 PUSH2 0x71E CALLDATASIZE PUSH1 0x4 PUSH2 0x237D JUMP JUMPDEST PUSH1 0x1 PUSH1 0x1 PUSH1 0xA0 SHL SUB SWAP2 DUP3 AND PUSH1 0x0 SWAP1 DUP2 MSTORE PUSH1 0x7 PUSH1 0x20 SWAP1 DUP2 MSTORE PUSH1 0x40 DUP1 DUP4 KECCAK256 SWAP4 SWAP1 SWAP5 AND DUP3 MSTORE SWAP2 SWAP1 SWAP2 MSTORE KECCAK256 SLOAD PUSH1 0xFF AND SWAP1 JUMP JUMPDEST CALLVALUE DUP1 ISZERO PUSH2 0x758 JUMPI PUSH1 0x0 DUP1 REVERT JUMPDEST POP PUSH2 0x305 PUSH2 0x767 CALLDATASIZE PUSH1 0x4 PUSH2 0x23A7 JUMP JUMPDEST PUSH2 0x1566 JUMP JUMPDEST CALLVALUE DUP1 ISZERO PUSH2 0x778 JUMPI PUSH1 0x0 DUP1 REVERT JUMPDEST POP PUSH2 0x305 PUSH2 0x787 CALLDATASIZE PUSH1 0x4 PUSH2 0x21F2 JUMP JUMPDEST PUSH2 0x1606 JUMP JUMPDEST PUSH1 0x0 PUSH1 0x1 PUSH1 0x1 PUSH1 0xE0 SHL SUB NOT DUP3 AND PUSH4 0x80AC58CD PUSH1 0xE0 SHL EQ DUP1 PUSH2 0x7BD JUMPI POP PUSH1 0x1 PUSH1 0x1 PUSH1 0xE0 SHL SUB NOT DUP3 AND PUSH4 0x5B5E139F PUSH1 0xE0 SHL EQ JUMPDEST DUP1 PUSH2 0x7D8 JUMPI POP PUSH4 0x1FFC9A7 PUSH1 0xE0 SHL PUSH1 0x1 PUSH1 0x1 PUSH1 0xE0 SHL SUB NOT DUP4 AND EQ JUMPDEST SWAP3 SWAP2 POP POP JUMP JUMPDEST PUSH1 0x60 PUSH1 0x2 DUP1 SLOAD PUSH2 0x7ED SWAP1 PUSH2 0x23CA JUMP JUMPDEST DUP1 PUSH1 0x1F ADD PUSH1 0x20 DUP1 SWAP2 DIV MUL PUSH1 0x20 ADD PUSH1 0x40 MLOAD SWAP1 DUP2 ADD PUSH1 0x40 MSTORE DUP1 SWAP3 SWAP2 SWAP1 DUP2 DUP2 MSTORE PUSH1 0x20 ADD DUP3 DUP1 SLOAD PUSH2 0x819 SWAP1 PUSH2 0x23CA JUMP JUMPDEST DUP1 ISZERO PUSH2 0x866 JUMPI DUP1 PUSH1 0x1F LT PUSH2 0x83B JUMPI PUSH2 0x100 DUP1 DUP4 SLOAD DIV MUL DUP4 MSTORE SWAP2 PUSH1 0x20 ADD SWAP2 PUSH2 0x866 JUMP JUMPDEST DUP3 ADD SWAP2 SWAP1 PUSH1 0x0 MSTORE PUSH1 0x20 PUSH1 0x0 KECCAK256 SWAP1 JUMPDEST DUP2 SLOAD DUP2 MSTORE SWAP1 PUSH1 0x1 ADD SWAP1 PUSH1 0x20 ADD DUP1 DUP4 GT PUSH2 0x849 JUMPI DUP3 SWAP1 SUB PUSH1 0x1F AND DUP3 ADD SWAP2 JUMPDEST POP POP POP POP POP SWAP1 POP SWAP1 JUMP JUMPDEST PUSH1 0x0 PUSH2 0x87B DUP3 PUSH2 0x16A1 JUMP JUMPDEST PUSH2 0x898 JUMPI PUSH1 0x40 MLOAD PUSH4 0x33D1C039 PUSH1 0xE2 SHL DUP2 MSTORE PUSH1 0x4 ADD PUSH1 0x40 MLOAD DUP1 SWAP2 SUB SWAP1 REVERT JUMPDEST POP PUSH1 0x0 SWAP1 DUP2 MSTORE PUSH1 0x6 PUSH1 0x20 MSTORE PUSH1 0x40 SWAP1 KECCAK256 SLOAD PUSH1 0x1 PUSH1 0x1 PUSH1 0xA0 SHL SUB AND SWAP1 JUMP JUMPDEST PUSH1 0x0 PUSH2 0x8BF DUP3 PUSH2 0xDB6 JUMP JUMPDEST SWAP1 POP DUP1 PUSH1 0x1 PUSH1 0x1 PUSH1 0xA0 SHL SUB AND DUP4 PUSH1 0x1 PUSH1 0x1 PUSH1 0xA0 SHL SUB AND EQ ISZERO PUSH2 0x8F4 JUMPI PUSH1 0x40 MLOAD PUSH4 0x250FDEE3 PUSH1 0xE2 SHL DUP2 MSTORE PUSH1 0x4 ADD PUSH1 0x40 MLOAD DUP1 SWAP2 SUB SWAP1 REVERT JUMPDEST CALLER PUSH1 0x1 PUSH1 0x1 PUSH1 0xA0 SHL SUB DUP3 AND EQ DUP1 ISZERO SWAP1 PUSH2 0x914 JUMPI POP PUSH2 0x912 DUP2 CALLER PUSH2 0x71E JUMP JUMPDEST ISZERO JUMPDEST ISZERO PUSH2 0x932 JUMPI PUSH1 0x40 MLOAD PUSH4 0x67D9DCA1 PUSH1 0xE1 SHL DUP2 MSTORE PUSH1 0x4 ADD PUSH1 0x40 MLOAD DUP1 SWAP2 SUB SWAP1 REVERT JUMPDEST PUSH2 0x93D DUP4 DUP4 DUP4 PUSH2 0x16DA JUMP JUMPDEST POP POP POP JUMP JUMPDEST PUSH1 0x8 SLOAD PUSH1 0x1 PUSH1 0x1 PUSH1 0xA0 SHL SUB AND CALLER EQ PUSH2 0x975 JUMPI PUSH1 0x40 MLOAD PUSH3 0x461BCD PUSH1 0xE5 SHL DUP2 MSTORE PUSH1 0x4 ADD PUSH2 0x96C SWAP1 PUSH2 0x2405 JUMP JUMPDEST PUSH1 0x40 MLOAD DUP1 SWAP2 SUB SWAP1 REVERT JUMPDEST DUP1 MLOAD PUSH2 0x988 SWAP1 PUSH1 0xD SWAP1 PUSH1 0x20 DUP5 ADD SWAP1 PUSH2 0x1F22 JUMP JUMPDEST POP POP JUMP JUMPDEST PUSH1 0x8 SLOAD PUSH1 0x1 PUSH1 0x1 PUSH1 0xA0 SHL SUB AND CALLER EQ PUSH2 0x9B6 JUMPI PUSH1 0x40 MLOAD PUSH3 0x461BCD PUSH1 0xE5 SHL DUP2 MSTORE PUSH1 0x4 ADD PUSH2 0x96C SWAP1 PUSH2 0x2405 JUMP JUMPDEST PUSH1 0x12 DUP1 SLOAD PUSH1 0xFF NOT AND SWAP2 ISZERO ISZERO SWAP2 SWAP1 SWAP2 OR SWAP1 SSTORE JUMP JUMPDEST PUSH2 0x93D DUP4 DUP4 DUP4 PUSH2 0x1736 JUMP JUMPDEST PUSH1 0x8 SLOAD PUSH1 0x1 PUSH1 0x1 PUSH1 0xA0 SHL SUB AND CALLER EQ PUSH2 0x9FE JUMPI PUSH1 0x40 MLOAD PUSH3 0x461BCD PUSH1 0xE5 SHL DUP2 MSTORE PUSH1 0x4 ADD PUSH2 0x96C SWAP1 PUSH2 0x2405 JUMP JUMPDEST PUSH1 0x2 PUSH1 0x9 SLOAD EQ ISZERO PUSH2 0xA51 JUMPI PUSH1 0x40 MLOAD PUSH3 0x461BCD PUSH1 0xE5 SHL DUP2 MSTORE PUSH1 0x20 PUSH1 0x4 DUP3 ADD MSTORE PUSH1 0x1F PUSH1 0x24 DUP3 ADD MSTORE PUSH32 0x5265656E7472616E637947756172643A207265656E7472616E742063616C6C00 PUSH1 0x44 DUP3 ADD MSTORE PUSH1 0x64 ADD PUSH2 0x96C JUMP JUMPDEST PUSH1 0x2 PUSH1 0x9 SSTORE PUSH1 0x0 PUSH20 0xCD65B839E01B1CE853BA82424B233DFAD239AF30 PUSH1 0x64 PUSH2 0xA7A SELFBALANCE PUSH1 0x5 PUSH2 0x2450 JUMP JUMPDEST PUSH2 0xA84 SWAP2 SWAP1 PUSH2 0x2485 JUMP JUMPDEST PUSH1 0x40 MLOAD PUSH1 0x0 DUP2 DUP2 DUP2 DUP6 DUP8 GAS CALL SWAP3 POP POP POP RETURNDATASIZE DUP1 PUSH1 0x0 DUP2 EQ PUSH2 0xAC0 JUMPI PUSH1 0x40 MLOAD SWAP2 POP PUSH1 0x1F NOT PUSH1 0x3F RETURNDATASIZE ADD AND DUP3 ADD PUSH1 0x40 MSTORE RETURNDATASIZE DUP3 MSTORE RETURNDATASIZE PUSH1 0x0 PUSH1 0x20 DUP5 ADD RETURNDATACOPY PUSH2 0xAC5 JUMP JUMPDEST PUSH1 0x60 SWAP2 POP JUMPDEST POP POP SWAP1 POP DUP1 PUSH2 0xAD3 JUMPI PUSH1 0x0 DUP1 REVERT JUMPDEST PUSH1 0x0 PUSH2 0xAE7 PUSH1 0x8 SLOAD PUSH1 0x1 PUSH1 0x1 PUSH1 0xA0 SHL SUB AND SWAP1 JUMP JUMPDEST PUSH1 0x1 PUSH1 0x1 PUSH1 0xA0 SHL SUB AND SELFBALANCE PUSH1 0x40 MLOAD PUSH1 0x0 PUSH1 0x40 MLOAD DUP1 DUP4 SUB DUP2 DUP6 DUP8 GAS CALL SWAP3 POP POP POP RETURNDATASIZE DUP1 PUSH1 0x0 DUP2 EQ PUSH2 0xB31 JUMPI PUSH1 0x40 MLOAD SWAP2 POP PUSH1 0x1F NOT PUSH1 0x3F RETURNDATASIZE ADD AND DUP3 ADD PUSH1 0x40 MSTORE RETURNDATASIZE DUP3 MSTORE RETURNDATASIZE PUSH1 0x0 PUSH1 0x20 DUP5 ADD RETURNDATACOPY PUSH2 0xB36 JUMP JUMPDEST PUSH1 0x60 SWAP2 POP JUMPDEST POP POP SWAP1 POP DUP1 PUSH2 0xB44 JUMPI PUSH1 0x0 DUP1 REVERT JUMPDEST POP POP PUSH1 0x1 PUSH1 0x9 SSTORE JUMP JUMPDEST PUSH2 0x93D DUP4 DUP4 DUP4 PUSH1 0x40 MLOAD DUP1 PUSH1 0x20 ADD PUSH1 0x40 MSTORE DUP1 PUSH1 0x0 DUP2 MSTORE POP PUSH2 0x10FA JUMP JUMPDEST PUSH1 0x60 PUSH1 0x0 PUSH2 0xB75 DUP4 PUSH2 0xDC8 JUMP JUMPDEST SWAP1 POP PUSH1 0x0 DUP2 PUSH1 0x1 PUSH1 0x1 PUSH1 0x40 SHL SUB DUP2 GT ISZERO PUSH2 0xB91 JUMPI PUSH2 0xB91 PUSH2 0x20B8 JUMP JUMPDEST PUSH1 0x40 MLOAD SWAP1 DUP1 DUP3 MSTORE DUP1 PUSH1 0x20 MUL PUSH1 0x20 ADD DUP3 ADD PUSH1 0x40 MSTORE DUP1 ISZERO PUSH2 0xBBA JUMPI DUP2 PUSH1 0x20 ADD PUSH1 0x20 DUP3 MUL DUP1 CALLDATASIZE DUP4 CALLDATACOPY ADD SWAP1 POP JUMPDEST POP SWAP1 POP PUSH1 0x1 PUSH1 0x0 DUP1 JUMPDEST DUP5 DUP3 LT DUP1 ISZERO PUSH2 0xBD4 JUMPI POP PUSH1 0x10 SLOAD DUP4 GT ISZERO JUMPDEST ISZERO PUSH2 0xCA4 JUMPI PUSH1 0x0 DUP4 DUP2 MSTORE PUSH1 0x4 PUSH1 0x20 SWAP1 DUP2 MSTORE PUSH1 0x40 SWAP2 DUP3 SWAP1 KECCAK256 DUP3 MLOAD PUSH1 0x60 DUP2 ADD DUP5 MSTORE SWAP1 SLOAD PUSH1 0x1 PUSH1 0x1 PUSH1 0xA0 SHL SUB DUP2 AND DUP3 MSTORE PUSH1 0x1 PUSH1 0xA0 SHL DUP2 DIV PUSH1 0x1 PUSH1 0x1 PUSH1 0x40 SHL SUB AND SWAP3 DUP3 ADD SWAP3 SWAP1 SWAP3 MSTORE PUSH1 0x1 PUSH1 0xE0 SHL SWAP1 SWAP2 DIV PUSH1 0xFF AND ISZERO DUP1 ISZERO SWAP3 DUP3 ADD DUP4 SWAP1 MSTORE SWAP1 SWAP2 PUSH2 0xC41 JUMPI POP DUP1 MLOAD PUSH1 0x1 PUSH1 0x1 PUSH1 0xA0 SHL SUB AND ISZERO ISZERO JUMPDEST ISZERO PUSH2 0xC4B JUMPI DUP1 MLOAD SWAP2 POP JUMPDEST DUP8 PUSH1 0x1 PUSH1 0x1 PUSH1 0xA0 SHL SUB AND DUP3 PUSH1 0x1 PUSH1 0x1 PUSH1 0xA0 SHL SUB AND EQ ISZERO PUSH2 0xC91 JUMPI DUP4 DUP6 DUP5 DUP2 MLOAD DUP2 LT PUSH2 0xC78 JUMPI PUSH2 0xC78 PUSH2 0x2499 JUMP JUMPDEST PUSH1 0x20 SWAP1 DUP2 MUL SWAP2 SWAP1 SWAP2 ADD ADD MSTORE DUP3 PUSH2 0xC8D DUP2 PUSH2 0x24AF JUMP JUMPDEST SWAP4 POP POP JUMPDEST DUP4 PUSH2 0xC9B DUP2 PUSH2 0x24AF JUMP JUMPDEST SWAP5 POP POP POP PUSH2 0xBC3 JUMP JUMPDEST POP SWAP2 SWAP6 SWAP5 POP POP POP POP POP JUMP JUMPDEST PUSH1 0x8 SLOAD PUSH1 0x1 PUSH1 0x1 PUSH1 0xA0 SHL SUB AND CALLER EQ PUSH2 0xCD9 JUMPI PUSH1 0x40 MLOAD PUSH3 0x461BCD PUSH1 0xE5 SHL DUP2 MSTORE PUSH1 0x4 ADD PUSH2 0x96C SWAP1 PUSH2 0x2405 JUMP JUMPDEST PUSH1 0xF SSTORE JUMP JUMPDEST PUSH1 0x8 SLOAD PUSH1 0x1 PUSH1 0x1 PUSH1 0xA0 SHL SUB AND CALLER EQ PUSH2 0xD08 JUMPI PUSH1 0x40 MLOAD PUSH3 0x461BCD PUSH1 0xE5 SHL DUP2 MSTORE PUSH1 0x4 ADD PUSH2 0x96C SWAP1 PUSH2 0x2405 JUMP JUMPDEST DUP1 MLOAD PUSH2 0x988 SWAP1 PUSH1 0xE SWAP1 PUSH1 0x20 DUP5 ADD SWAP1 PUSH2 0x1F22 JUMP JUMPDEST PUSH1 0xD DUP1 SLOAD PUSH2 0xD28 SWAP1 PUSH2 0x23CA JUMP JUMPDEST DUP1 PUSH1 0x1F ADD PUSH1 0x20 DUP1 SWAP2 DIV MUL PUSH1 0x20 ADD PUSH1 0x40 MLOAD SWAP1 DUP2 ADD PUSH1 0x40 MSTORE DUP1 SWAP3 SWAP2 SWAP1 DUP2 DUP2 MSTORE PUSH1 0x20 ADD DUP3 DUP1 SLOAD PUSH2 0xD54 SWAP1 PUSH2 0x23CA JUMP JUMPDEST DUP1 ISZERO PUSH2 0xDA1 JUMPI DUP1 PUSH1 0x1F LT PUSH2 0xD76 JUMPI PUSH2 0x100 DUP1 DUP4 SLOAD DIV MUL DUP4 MSTORE SWAP2 PUSH1 0x20 ADD SWAP2 PUSH2 0xDA1 JUMP JUMPDEST DUP3 ADD SWAP2 SWAP1 PUSH1 0x0 MSTORE PUSH1 0x20 PUSH1 0x0 KECCAK256 SWAP1 JUMPDEST DUP2 SLOAD DUP2 MSTORE SWAP1 PUSH1 0x1 ADD SWAP1 PUSH1 0x20 ADD DUP1 DUP4 GT PUSH2 0xD84 JUMPI DUP3 SWAP1 SUB PUSH1 0x1F AND DUP3 ADD SWAP2 JUMPDEST POP POP POP POP POP DUP2 JUMP JUMPDEST PUSH1 0xC DUP1 SLOAD PUSH2 0xD28 SWAP1 PUSH2 0x23CA JUMP JUMPDEST PUSH1 0x0 PUSH2 0xDC1 DUP3 PUSH2 0x1924 JUMP JUMPDEST MLOAD SWAP3 SWAP2 POP POP JUMP JUMPDEST PUSH1 0x0 PUSH1 0x1 PUSH1 0x1 PUSH1 0xA0 SHL SUB DUP3 AND PUSH2 0xDF1 JUMPI PUSH1 0x40 MLOAD PUSH4 0x23D3AD81 PUSH1 0xE2 SHL DUP2 MSTORE PUSH1 0x4 ADD PUSH1 0x40 MLOAD DUP1 SWAP2 SUB SWAP1 REVERT JUMPDEST POP PUSH1 0x1 PUSH1 0x1 PUSH1 0xA0 SHL SUB AND PUSH1 0x0 SWAP1 DUP2 MSTORE PUSH1 0x5 PUSH1 0x20 MSTORE PUSH1 0x40 SWAP1 KECCAK256 SLOAD PUSH1 0x1 PUSH1 0x1 PUSH1 0x40 SHL SUB AND SWAP1 JUMP JUMPDEST PUSH1 0x8 SLOAD PUSH1 0x1 PUSH1 0x1 PUSH1 0xA0 SHL SUB AND CALLER EQ PUSH2 0xE40 JUMPI PUSH1 0x40 MLOAD PUSH3 0x461BCD PUSH1 0xE5 SHL DUP2 MSTORE PUSH1 0x4 ADD PUSH2 0x96C SWAP1 PUSH2 0x2405 JUMP JUMPDEST PUSH2 0xE4A PUSH1 0x0 PUSH2 0x1A4B JUMP JUMPDEST JUMP JUMPDEST PUSH1 0x8 SLOAD PUSH1 0x1 PUSH1 0x1 PUSH1 0xA0 SHL SUB AND CALLER EQ PUSH2 0xE76 JUMPI PUSH1 0x40 MLOAD PUSH3 0x461BCD PUSH1 0xE5 SHL DUP2 MSTORE PUSH1 0x4 ADD PUSH2 0x96C SWAP1 PUSH2 0x2405 JUMP JUMPDEST PUSH1 0xA SSTORE JUMP JUMPDEST PUSH1 0x8 SLOAD PUSH1 0x1 PUSH1 0x1 PUSH1 0xA0 SHL SUB AND CALLER EQ PUSH2 0xEA5 JUMPI PUSH1 0x40 MLOAD PUSH3 0x461BCD PUSH1 0xE5 SHL DUP2 MSTORE PUSH1 0x4 ADD PUSH2 0x96C SWAP1 PUSH2 0x2405 JUMP JUMPDEST DUP1 MLOAD PUSH2 0x988 SWAP1 PUSH1 0xC SWAP1 PUSH1 0x20 DUP5 ADD SWAP1 PUSH2 0x1F22 JUMP JUMPDEST PUSH1 0x60 PUSH1 0x3 DUP1 SLOAD PUSH2 0x7ED SWAP1 PUSH2 0x23CA JUMP JUMPDEST DUP1 PUSH1 0x0 DUP2 GT DUP1 ISZERO PUSH2 0xEDA JUMPI POP PUSH1 0x11 SLOAD DUP2 GT ISZERO JUMPDEST PUSH2 0xEF6 JUMPI PUSH1 0x40 MLOAD PUSH3 0x461BCD PUSH1 0xE5 SHL DUP2 MSTORE PUSH1 0x4 ADD PUSH2 0x96C SWAP1 PUSH2 0x24CA JUMP JUMPDEST PUSH1 0x10 SLOAD DUP2 PUSH2 0xF0B PUSH1 0x1 SLOAD PUSH1 0x0 SLOAD SUB PUSH1 0x0 NOT ADD SWAP1 JUMP JUMPDEST PUSH2 0xF15 SWAP2 SWAP1 PUSH2 0x24F8 JUMP JUMPDEST GT ISZERO PUSH2 0xF33 JUMPI PUSH1 0x40 MLOAD PUSH3 0x461BCD PUSH1 0xE5 SHL DUP2 MSTORE PUSH1 0x4 ADD PUSH2 0x96C SWAP1 PUSH2 0x2510 JUMP JUMPDEST DUP2 DUP1 PUSH1 0xF SLOAD PUSH2 0xF42 SWAP2 SWAP1 PUSH2 0x2450 JUMP JUMPDEST CALLVALUE LT ISZERO PUSH2 0xF87 JUMPI PUSH1 0x40 MLOAD PUSH3 0x461BCD PUSH1 0xE5 SHL DUP2 MSTORE PUSH1 0x20 PUSH1 0x4 DUP3 ADD MSTORE PUSH1 0x13 PUSH1 0x24 DUP3 ADD MSTORE PUSH19 0x496E73756666696369656E742066756E647321 PUSH1 0x68 SHL PUSH1 0x44 DUP3 ADD MSTORE PUSH1 0x64 ADD PUSH2 0x96C JUMP JUMPDEST PUSH1 0x12 SLOAD PUSH1 0xFF AND ISZERO PUSH2 0xFDA JUMPI PUSH1 0x40 MLOAD PUSH3 0x461BCD PUSH1 0xE5 SHL DUP2 MSTORE PUSH1 0x20 PUSH1 0x4 DUP3 ADD MSTORE PUSH1 0x17 PUSH1 0x24 DUP3 ADD MSTORE PUSH32 0x54686520636F6E74726163742069732070617573656421000000000000000000 PUSH1 0x44 DUP3 ADD MSTORE PUSH1 0x64 ADD PUSH2 0x96C JUMP JUMPDEST PUSH2 0x93D CALLER DUP5 PUSH2 0x1A9D JUMP JUMPDEST PUSH1 0x1 PUSH1 0x1 PUSH1 0xA0 SHL SUB DUP3 AND CALLER EQ ISZERO PUSH2 0x100E JUMPI PUSH1 0x40 MLOAD PUSH4 0xB06307DB PUSH1 0xE0 SHL DUP2 MSTORE PUSH1 0x4 ADD PUSH1 0x40 MLOAD DUP1 SWAP2 SUB SWAP1 REVERT JUMPDEST CALLER PUSH1 0x0 DUP2 DUP2 MSTORE PUSH1 0x7 PUSH1 0x20 SWAP1 DUP2 MSTORE PUSH1 0x40 DUP1 DUP4 KECCAK256 PUSH1 0x1 PUSH1 0x1 PUSH1 0xA0 SHL SUB DUP8 AND DUP1 DUP6 MSTORE SWAP1 DUP4 MSTORE SWAP3 DUP2 SWAP1 KECCAK256 DUP1 SLOAD PUSH1 0xFF NOT AND DUP7 ISZERO ISZERO SWAP1 DUP2 OR SWAP1 SWAP2 SSTORE SWAP1 MLOAD SWAP1 DUP2 MSTORE SWAP2 SWAP3 SWAP2 PUSH32 0x17307EAB39AB6107E8899845AD3D59BD9653F200F220920489CA2B5937696C31 SWAP2 ADD PUSH1 0x40 MLOAD DUP1 SWAP2 SUB SWAP1 LOG3 POP POP JUMP JUMPDEST PUSH1 0xE DUP1 SLOAD PUSH2 0xD28 SWAP1 PUSH2 0x23CA JUMP JUMPDEST PUSH1 0x8 SLOAD PUSH1 0x1 PUSH1 0x1 PUSH1 0xA0 SHL SUB AND CALLER EQ PUSH2 0x10B1 JUMPI PUSH1 0x40 MLOAD PUSH3 0x461BCD PUSH1 0xE5 SHL DUP2 MSTORE PUSH1 0x4 ADD PUSH2 0x96C SWAP1 PUSH2 0x2405 JUMP JUMPDEST PUSH1 0x11 SSTORE JUMP JUMPDEST PUSH1 0x8 SLOAD PUSH1 0x1 PUSH1 0x1 PUSH1 0xA0 SHL SUB AND CALLER EQ PUSH2 0x10E0 JUMPI PUSH1 0x40 MLOAD PUSH3 0x461BCD PUSH1 0xE5 SHL DUP2 MSTORE PUSH1 0x4 ADD PUSH2 0x96C SWAP1 PUSH2 0x2405 JUMP JUMPDEST PUSH1 0x12 DUP1 SLOAD SWAP2 ISZERO ISZERO PUSH2 0x100 MUL PUSH2 0xFF00 NOT SWAP1 SWAP3 AND SWAP2 SWAP1 SWAP2 OR SWAP1 SSTORE JUMP JUMPDEST PUSH2 0x1105 DUP5 DUP5 DUP5 PUSH2 0x1736 JUMP JUMPDEST PUSH1 0x1 PUSH1 0x1 PUSH1 0xA0 SHL SUB DUP4 AND EXTCODESIZE ISZERO ISZERO DUP1 ISZERO PUSH2 0x1127 JUMPI POP PUSH2 0x1125 DUP5 DUP5 DUP5 DUP5 PUSH2 0x1AB7 JUMP JUMPDEST ISZERO JUMPDEST ISZERO PUSH2 0x1145 JUMPI PUSH1 0x40 MLOAD PUSH4 0x68D2BF6B PUSH1 0xE1 SHL DUP2 MSTORE PUSH1 0x4 ADD PUSH1 0x40 MLOAD DUP1 SWAP2 SUB SWAP1 REVERT JUMPDEST POP POP POP POP JUMP JUMPDEST PUSH1 0x60 PUSH2 0x1156 DUP3 PUSH2 0x16A1 JUMP JUMPDEST PUSH2 0x11BA JUMPI PUSH1 0x40 MLOAD PUSH3 0x461BCD PUSH1 0xE5 SHL DUP2 MSTORE PUSH1 0x20 PUSH1 0x4 DUP3 ADD MSTORE PUSH1 0x2F PUSH1 0x24 DUP3 ADD MSTORE PUSH32 0x4552433732314D657461646174613A2055524920717565727920666F72206E6F PUSH1 0x44 DUP3 ADD MSTORE PUSH15 0x3732BC34B9BA32B73A103A37B5B2B7 PUSH1 0x89 SHL PUSH1 0x64 DUP3 ADD MSTORE PUSH1 0x84 ADD PUSH2 0x96C JUMP JUMPDEST PUSH1 0x12 SLOAD PUSH3 0x10000 SWAP1 DIV PUSH1 0xFF AND PUSH2 0x125C JUMPI PUSH1 0xE DUP1 SLOAD PUSH2 0x11D7 SWAP1 PUSH2 0x23CA JUMP JUMPDEST DUP1 PUSH1 0x1F ADD PUSH1 0x20 DUP1 SWAP2 DIV MUL PUSH1 0x20 ADD PUSH1 0x40 MLOAD SWAP1 DUP2 ADD PUSH1 0x40 MSTORE DUP1 SWAP3 SWAP2 SWAP1 DUP2 DUP2 MSTORE PUSH1 0x20 ADD DUP3 DUP1 SLOAD PUSH2 0x1203 SWAP1 PUSH2 0x23CA JUMP JUMPDEST DUP1 ISZERO PUSH2 0x1250 JUMPI DUP1 PUSH1 0x1F LT PUSH2 0x1225 JUMPI PUSH2 0x100 DUP1 DUP4 SLOAD DIV MUL DUP4 MSTORE SWAP2 PUSH1 0x20 ADD SWAP2 PUSH2 0x1250 JUMP JUMPDEST DUP3 ADD SWAP2 SWAP1 PUSH1 0x0 MSTORE PUSH1 0x20 PUSH1 0x0 KECCAK256 SWAP1 JUMPDEST DUP2 SLOAD DUP2 MSTORE SWAP1 PUSH1 0x1 ADD SWAP1 PUSH1 0x20 ADD DUP1 DUP4 GT PUSH2 0x1233 JUMPI DUP3 SWAP1 SUB PUSH1 0x1F AND DUP3 ADD SWAP2 JUMPDEST POP POP POP POP POP SWAP1 POP SWAP2 SWAP1 POP JUMP JUMPDEST PUSH1 0x0 PUSH2 0x1266 PUSH2 0x1BAF JUMP JUMPDEST SWAP1 POP PUSH1 0x0 DUP2 MLOAD GT PUSH2 0x1286 JUMPI PUSH1 0x40 MLOAD DUP1 PUSH1 0x20 ADD PUSH1 0x40 MSTORE DUP1 PUSH1 0x0 DUP2 MSTORE POP PUSH2 0x12B4 JUMP JUMPDEST DUP1 PUSH2 0x1290 DUP5 PUSH2 0x1BBE JUMP JUMPDEST PUSH1 0xD PUSH1 0x40 MLOAD PUSH1 0x20 ADD PUSH2 0x12A4 SWAP4 SWAP3 SWAP2 SWAP1 PUSH2 0x253E JUMP JUMPDEST PUSH1 0x40 MLOAD PUSH1 0x20 DUP2 DUP4 SUB SUB DUP2 MSTORE SWAP1 PUSH1 0x40 MSTORE JUMPDEST SWAP4 SWAP3 POP POP POP JUMP JUMPDEST DUP3 PUSH1 0x0 DUP2 GT DUP1 ISZERO PUSH2 0x12CE JUMPI POP PUSH1 0x11 SLOAD DUP2 GT ISZERO JUMPDEST PUSH2 0x12EA JUMPI PUSH1 0x40 MLOAD PUSH3 0x461BCD PUSH1 0xE5 SHL DUP2 MSTORE PUSH1 0x4 ADD PUSH2 0x96C SWAP1 PUSH2 0x24CA JUMP JUMPDEST PUSH1 0x10 SLOAD DUP2 PUSH2 0x12FF PUSH1 0x1 SLOAD PUSH1 0x0 SLOAD SUB PUSH1 0x0 NOT ADD SWAP1 JUMP JUMPDEST PUSH2 0x1309 SWAP2 SWAP1 PUSH2 0x24F8 JUMP JUMPDEST GT ISZERO PUSH2 0x1327 JUMPI PUSH1 0x40 MLOAD PUSH3 0x461BCD PUSH1 0xE5 SHL DUP2 MSTORE PUSH1 0x4 ADD PUSH2 0x96C SWAP1 PUSH2 0x2510 JUMP JUMPDEST DUP4 DUP1 PUSH1 0xF SLOAD PUSH2 0x1336 SWAP2 SWAP1 PUSH2 0x2450 JUMP JUMPDEST CALLVALUE LT ISZERO PUSH2 0x137B JUMPI PUSH1 0x40 MLOAD PUSH3 0x461BCD PUSH1 0xE5 SHL DUP2 MSTORE PUSH1 0x20 PUSH1 0x4 DUP3 ADD MSTORE PUSH1 0x13 PUSH1 0x24 DUP3 ADD MSTORE PUSH19 0x496E73756666696369656E742066756E647321 PUSH1 0x68 SHL PUSH1 0x44 DUP3 ADD MSTORE PUSH1 0x64 ADD PUSH2 0x96C JUMP JUMPDEST PUSH1 0x12 SLOAD PUSH2 0x100 SWAP1 DIV PUSH1 0xFF AND PUSH2 0x13DD JUMPI PUSH1 0x40 MLOAD PUSH3 0x461BCD PUSH1 0xE5 SHL DUP2 MSTORE PUSH1 0x20 PUSH1 0x4 DUP3 ADD MSTORE PUSH1 0x22 PUSH1 0x24 DUP3 ADD MSTORE PUSH32 0x5468652077686974656C6973742073616C65206973206E6F7420656E61626C65 PUSH1 0x44 DUP3 ADD MSTORE PUSH2 0x6421 PUSH1 0xF0 SHL PUSH1 0x64 DUP3 ADD MSTORE PUSH1 0x84 ADD PUSH2 0x96C JUMP JUMPDEST CALLER PUSH1 0x0 SWAP1 DUP2 MSTORE PUSH1 0xB PUSH1 0x20 MSTORE PUSH1 0x40 SWAP1 KECCAK256 SLOAD PUSH1 0xFF AND ISZERO PUSH2 0x143D JUMPI PUSH1 0x40 MLOAD PUSH3 0x461BCD PUSH1 0xE5 SHL DUP2 MSTORE PUSH1 0x20 PUSH1 0x4 DUP3 ADD MSTORE PUSH1 0x18 PUSH1 0x24 DUP3 ADD MSTORE PUSH32 0x4164647265737320616C726561647920636C61696D6564210000000000000000 PUSH1 0x44 DUP3 ADD MSTORE PUSH1 0x64 ADD PUSH2 0x96C JUMP JUMPDEST PUSH1 0x40 MLOAD PUSH12 0xFFFFFFFFFFFFFFFFFFFFFFFF NOT CALLER PUSH1 0x60 SHL AND PUSH1 0x20 DUP3 ADD MSTORE PUSH1 0x0 SWAP1 PUSH1 0x34 ADD PUSH1 0x40 MLOAD PUSH1 0x20 DUP2 DUP4 SUB SUB DUP2 MSTORE SWAP1 PUSH1 0x40 MSTORE DUP1 MLOAD SWAP1 PUSH1 0x20 ADD KECCAK256 SWAP1 POP PUSH2 0x14B7 DUP6 DUP6 DUP1 DUP1 PUSH1 0x20 MUL PUSH1 0x20 ADD PUSH1 0x40 MLOAD SWAP1 DUP2 ADD PUSH1 0x40 MSTORE DUP1 SWAP4 SWAP3 SWAP2 SWAP1 DUP2 DUP2 MSTORE PUSH1 0x20 ADD DUP4 DUP4 PUSH1 0x20 MUL DUP1 DUP3 DUP5 CALLDATACOPY PUSH1 0x0 SWAP3 ADD SWAP2 SWAP1 SWAP2 MSTORE POP POP PUSH1 0xA SLOAD SWAP2 POP DUP5 SWAP1 POP PUSH2 0x1CBB JUMP JUMPDEST PUSH2 0x14F4 JUMPI PUSH1 0x40 MLOAD PUSH3 0x461BCD PUSH1 0xE5 SHL DUP2 MSTORE PUSH1 0x20 PUSH1 0x4 DUP3 ADD MSTORE PUSH1 0xE PUSH1 0x24 DUP3 ADD MSTORE PUSH14 0x496E76616C69642070726F6F6621 PUSH1 0x90 SHL PUSH1 0x44 DUP3 ADD MSTORE PUSH1 0x64 ADD PUSH2 0x96C JUMP JUMPDEST CALLER PUSH1 0x0 DUP2 DUP2 MSTORE PUSH1 0xB PUSH1 0x20 MSTORE PUSH1 0x40 SWAP1 KECCAK256 DUP1 SLOAD PUSH1 0xFF NOT AND PUSH1 0x1 OR SWAP1 SSTORE PUSH2 0x1518 SWAP1 DUP8 PUSH2 0x1A9D JUMP JUMPDEST POP POP POP POP POP POP JUMP JUMPDEST PUSH1 0x8 SLOAD PUSH1 0x1 PUSH1 0x1 PUSH1 0xA0 SHL SUB AND CALLER EQ PUSH2 0x154A JUMPI PUSH1 0x40 MLOAD PUSH3 0x461BCD PUSH1 0xE5 SHL DUP2 MSTORE PUSH1 0x4 ADD PUSH2 0x96C SWAP1 PUSH2 0x2405 JUMP JUMPDEST PUSH1 0x12 DUP1 SLOAD SWAP2 ISZERO ISZERO PUSH3 0x10000 MUL PUSH3 0xFF0000 NOT SWAP1 SWAP3 AND SWAP2 SWAP1 SWAP2 OR SWAP1 SSTORE JUMP JUMPDEST DUP2 PUSH1 0x0 DUP2 GT DUP1 ISZERO PUSH2 0x1579 JUMPI POP PUSH1 0x11 SLOAD DUP2 GT ISZERO JUMPDEST PUSH2 0x1595 JUMPI PUSH1 0x40 MLOAD PUSH3 0x461BCD PUSH1 0xE5 SHL DUP2 MSTORE PUSH1 0x4 ADD PUSH2 0x96C SWAP1 PUSH2 0x24CA JUMP JUMPDEST PUSH1 0x10 SLOAD DUP2 PUSH2 0x15AA PUSH1 0x1 SLOAD PUSH1 0x0 SLOAD SUB PUSH1 0x0 NOT ADD SWAP1 JUMP JUMPDEST PUSH2 0x15B4 SWAP2 SWAP1 PUSH2 0x24F8 JUMP JUMPDEST GT ISZERO PUSH2 0x15D2 JUMPI PUSH1 0x40 MLOAD PUSH3 0x461BCD PUSH1 0xE5 SHL DUP2 MSTORE PUSH1 0x4 ADD PUSH2 0x96C SWAP1 PUSH2 0x2510 JUMP JUMPDEST PUSH1 0x8 SLOAD PUSH1 0x1 PUSH1 0x1 PUSH1 0xA0 SHL SUB AND CALLER EQ PUSH2 0x15FC JUMPI PUSH1 0x40 MLOAD PUSH3 0x461BCD PUSH1 0xE5 SHL DUP2 MSTORE PUSH1 0x4 ADD PUSH2 0x96C SWAP1 PUSH2 0x2405 JUMP JUMPDEST PUSH2 0x93D DUP3 DUP5 PUSH2 0x1A9D JUMP JUMPDEST PUSH1 0x8 SLOAD PUSH1 0x1 PUSH1 0x1 PUSH1 0xA0 SHL SUB AND CALLER EQ PUSH2 0x1630 JUMPI PUSH1 0x40 MLOAD PUSH3 0x461BCD PUSH1 0xE5 SHL DUP2 MSTORE PUSH1 0x4 ADD PUSH2 0x96C SWAP1 PUSH2 0x2405 JUMP JUMPDEST PUSH1 0x1 PUSH1 0x1 PUSH1 0xA0 SHL SUB DUP2 AND PUSH2 0x1695 JUMPI PUSH1 0x40 MLOAD PUSH3 0x461BCD PUSH1 0xE5 SHL DUP2 MSTORE PUSH1 0x20 PUSH1 0x4 DUP3 ADD MSTORE PUSH1 0x26 PUSH1 0x24 DUP3 ADD MSTORE PUSH32 0x4F776E61626C653A206E6577206F776E657220697320746865207A65726F2061 PUSH1 0x44 DUP3 ADD MSTORE PUSH6 0x646472657373 PUSH1 0xD0 SHL PUSH1 0x64 DUP3 ADD MSTORE PUSH1 0x84 ADD PUSH2 0x96C JUMP JUMPDEST PUSH2 0x169E DUP2 PUSH2 0x1A4B JUMP JUMPDEST POP JUMP JUMPDEST PUSH1 0x0 DUP2 PUSH1 0x1 GT ISZERO DUP1 ISZERO PUSH2 0x16B5 JUMPI POP PUSH1 0x0 SLOAD DUP3 LT JUMPDEST DUP1 ISZERO PUSH2 0x7D8 JUMPI POP POP PUSH1 0x0 SWAP1 DUP2 MSTORE PUSH1 0x4 PUSH1 0x20 MSTORE PUSH1 0x40 SWAP1 KECCAK256 SLOAD PUSH1 0x1 PUSH1 0xE0 SHL SWAP1 DIV PUSH1 0xFF AND ISZERO SWAP1 JUMP JUMPDEST PUSH1 0x0 DUP3 DUP2 MSTORE PUSH1 0x6 PUSH1 0x20 MSTORE PUSH1 0x40 DUP1 DUP3 KECCAK256 DUP1 SLOAD PUSH1 0x1 PUSH1 0x1 PUSH1 0xA0 SHL SUB NOT AND PUSH1 0x1 PUSH1 0x1 PUSH1 0xA0 SHL SUB DUP8 DUP2 AND SWAP2 DUP3 OR SWAP1 SWAP3 SSTORE SWAP2 MLOAD DUP6 SWAP4 SWAP2 DUP6 AND SWAP2 PUSH32 0x8C5BE1E5EBEC7D5BD14F71427D1E84F3DD0314C0F7B2291E5B200AC8C7C3B925 SWAP2 LOG4 POP POP POP JUMP JUMPDEST PUSH1 0x0 PUSH2 0x1741 DUP3 PUSH2 0x1924 JUMP JUMPDEST SWAP1 POP DUP4 PUSH1 0x1 PUSH1 0x1 PUSH1 0xA0 SHL SUB AND DUP2 PUSH1 0x0 ADD MLOAD PUSH1 0x1 PUSH1 0x1 PUSH1 0xA0 SHL SUB AND EQ PUSH2 0x1778 JUMPI PUSH1 0x40 MLOAD PUSH3 0xA11481 PUSH1 0xE8 SHL DUP2 MSTORE PUSH1 0x4 ADD PUSH1 0x40 MLOAD DUP1 SWAP2 SUB SWAP1 REVERT JUMPDEST PUSH1 0x0 CALLER PUSH1 0x1 PUSH1 0x1 PUSH1 0xA0 SHL SUB DUP7 AND EQ DUP1 PUSH2 0x1796 JUMPI POP PUSH2 0x1796 DUP6 CALLER PUSH2 0x71E JUMP JUMPDEST DUP1 PUSH2 0x17B1 JUMPI POP CALLER PUSH2 0x17A6 DUP5 PUSH2 0x870 JUMP JUMPDEST PUSH1 0x1 PUSH1 0x1 PUSH1 0xA0 SHL SUB AND EQ JUMPDEST SWAP1 POP DUP1 PUSH2 0x17D1 JUMPI PUSH1 0x40 MLOAD PUSH4 0x2CE44B5F PUSH1 0xE1 SHL DUP2 MSTORE PUSH1 0x4 ADD PUSH1 0x40 MLOAD DUP1 SWAP2 SUB SWAP1 REVERT JUMPDEST PUSH1 0x1 PUSH1 0x1 PUSH1 0xA0 SHL SUB DUP5 AND PUSH2 0x17F8 JUMPI PUSH1 0x40 MLOAD PUSH4 0x3A954ECD PUSH1 0xE2 SHL DUP2 MSTORE PUSH1 0x4 ADD PUSH1 0x40 MLOAD DUP1 SWAP2 SUB SWAP1 REVERT JUMPDEST PUSH2 0x1804 PUSH1 0x0 DUP5 DUP8 PUSH2 0x16DA JUMP JUMPDEST PUSH1 0x1 PUSH1 0x1 PUSH1 0xA0 SHL SUB DUP6 DUP2 AND PUSH1 0x0 SWAP1 DUP2 MSTORE PUSH1 0x5 PUSH1 0x20 SWAP1 DUP2 MSTORE PUSH1 0x40 DUP1 DUP4 KECCAK256 DUP1 SLOAD PUSH8 0xFFFFFFFFFFFFFFFF NOT DUP1 DUP3 AND PUSH1 0x1 PUSH1 0x1 PUSH1 0x40 SHL SUB SWAP3 DUP4 AND PUSH1 0x0 NOT ADD DUP4 AND OR SWAP1 SWAP3 SSTORE DUP10 DUP7 AND DUP1 DUP7 MSTORE DUP4 DUP7 KECCAK256 DUP1 SLOAD SWAP4 DUP5 AND SWAP4 DUP4 AND PUSH1 0x1 SWAP1 DUP2 ADD DUP5 AND SWAP5 SWAP1 SWAP5 OR SWAP1 SSTORE DUP10 DUP7 MSTORE PUSH1 0x4 SWAP1 SWAP5 MSTORE DUP3 DUP6 KECCAK256 DUP1 SLOAD PUSH1 0x1 PUSH1 0x1 PUSH1 0xE0 SHL SUB NOT AND SWAP1 SWAP5 OR PUSH1 0x1 PUSH1 0xA0 SHL TIMESTAMP SWAP1 SWAP3 AND SWAP2 SWAP1 SWAP2 MUL OR DUP4 SSTORE DUP8 ADD DUP1 DUP5 MSTORE SWAP3 KECCAK256 DUP1 SLOAD SWAP2 SWAP4 SWAP1 SWAP2 AND PUSH2 0x18D8 JUMPI PUSH1 0x0 SLOAD DUP3 EQ PUSH2 0x18D8 JUMPI DUP1 SLOAD PUSH1 0x20 DUP7 ADD MLOAD PUSH1 0x1 PUSH1 0x1 PUSH1 0x40 SHL SUB AND PUSH1 0x1 PUSH1 0xA0 SHL MUL PUSH1 0x1 PUSH1 0x1 PUSH1 0xE0 SHL SUB NOT SWAP1 SWAP2 AND PUSH1 0x1 PUSH1 0x1 PUSH1 0xA0 SHL SUB DUP11 AND OR OR DUP2 SSTORE JUMPDEST POP POP POP DUP3 DUP5 PUSH1 0x1 PUSH1 0x1 PUSH1 0xA0 SHL SUB AND DUP7 PUSH1 0x1 PUSH1 0x1 PUSH1 0xA0 SHL SUB AND PUSH32 0xDDF252AD1BE2C89B69C2B068FC378DAA952BA7F163C4A11628F55A4DF523B3EF PUSH1 0x40 MLOAD PUSH1 0x40 MLOAD DUP1 SWAP2 SUB SWAP1 LOG4 JUMPDEST POP POP POP POP POP JUMP JUMPDEST PUSH1 0x40 DUP1 MLOAD PUSH1 0x60 DUP2 ADD DUP3 MSTORE PUSH1 0x0 DUP1 DUP3 MSTORE PUSH1 0x20 DUP3 ADD DUP2 SWAP1 MSTORE SWAP2 DUP2 ADD SWAP2 SWAP1 SWAP2 MSTORE DUP2 DUP1 PUSH1 0x1 GT ISZERO DUP1 ISZERO PUSH2 0x1954 JUMPI POP PUSH1 0x0 SLOAD DUP2 LT JUMPDEST ISZERO PUSH2 0x1A32 JUMPI PUSH1 0x0 DUP2 DUP2 MSTORE PUSH1 0x4 PUSH1 0x20 SWAP1 DUP2 MSTORE PUSH1 0x40 SWAP2 DUP3 SWAP1 KECCAK256 DUP3 MLOAD PUSH1 0x60 DUP2 ADD DUP5 MSTORE SWAP1 SLOAD PUSH1 0x1 PUSH1 0x1 PUSH1 0xA0 SHL SUB DUP2 AND DUP3 MSTORE PUSH1 0x1 PUSH1 0xA0 SHL DUP2 DIV PUSH1 0x1 PUSH1 0x1 PUSH1 0x40 SHL SUB AND SWAP3 DUP3 ADD SWAP3 SWAP1 SWAP3 MSTORE PUSH1 0x1 PUSH1 0xE0 SHL SWAP1 SWAP2 DIV PUSH1 0xFF AND ISZERO ISZERO SWAP2 DUP2 ADD DUP3 SWAP1 MSTORE SWAP1 PUSH2 0x1A30 JUMPI DUP1 MLOAD PUSH1 0x1 PUSH1 0x1 PUSH1 0xA0 SHL SUB AND ISZERO PUSH2 0x19C7 JUMPI SWAP4 SWAP3 POP POP POP JUMP JUMPDEST POP PUSH1 0x0 NOT ADD PUSH1 0x0 DUP2 DUP2 MSTORE PUSH1 0x4 PUSH1 0x20 SWAP1 DUP2 MSTORE PUSH1 0x40 SWAP2 DUP3 SWAP1 KECCAK256 DUP3 MLOAD PUSH1 0x60 DUP2 ADD DUP5 MSTORE SWAP1 SLOAD PUSH1 0x1 PUSH1 0x1 PUSH1 0xA0 SHL SUB DUP2 AND DUP1 DUP4 MSTORE PUSH1 0x1 PUSH1 0xA0 SHL DUP3 DIV PUSH1 0x1 PUSH1 0x1 PUSH1 0x40 SHL SUB AND SWAP4 DUP4 ADD SWAP4 SWAP1 SWAP4 MSTORE PUSH1 0x1 PUSH1 0xE0 SHL SWAP1 DIV PUSH1 0xFF AND ISZERO ISZERO SWAP3 DUP2 ADD SWAP3 SWAP1 SWAP3 MSTORE ISZERO PUSH2 0x1A2B JUMPI SWAP4 SWAP3 POP POP POP JUMP JUMPDEST PUSH2 0x19C7 JUMP JUMPDEST POP JUMPDEST PUSH1 0x40 MLOAD PUSH4 0x6F96CDA1 PUSH1 0xE1 SHL DUP2 MSTORE PUSH1 0x4 ADD PUSH1 0x40 MLOAD DUP1 SWAP2 SUB SWAP1 REVERT JUMPDEST PUSH1 0x8 DUP1 SLOAD PUSH1 0x1 PUSH1 0x1 PUSH1 0xA0 SHL SUB DUP4 DUP2 AND PUSH1 0x1 PUSH1 0x1 PUSH1 0xA0 SHL SUB NOT DUP4 AND DUP2 OR SWAP1 SWAP4 SSTORE PUSH1 0x40 MLOAD SWAP2 AND SWAP2 SWAP1 DUP3 SWAP1 PUSH32 0x8BE0079C531659141344CD1FD0A4F28419497F9722A3DAAFE3B4186F6B6457E0 SWAP1 PUSH1 0x0 SWAP1 LOG3 POP POP JUMP JUMPDEST PUSH2 0x988 DUP3 DUP3 PUSH1 0x40 MLOAD DUP1 PUSH1 0x20 ADD PUSH1 0x40 MSTORE DUP1 PUSH1 0x0 DUP2 MSTORE POP PUSH2 0x1CD1 JUMP JUMPDEST PUSH1 0x40 MLOAD PUSH4 0xA85BD01 PUSH1 0xE1 SHL DUP2 MSTORE PUSH1 0x0 SWAP1 PUSH1 0x1 PUSH1 0x1 PUSH1 0xA0 SHL SUB DUP6 AND SWAP1 PUSH4 0x150B7A02 SWAP1 PUSH2 0x1AEC SWAP1 CALLER SWAP1 DUP10 SWAP1 DUP9 SWAP1 DUP9 SWAP1 PUSH1 0x4 ADD PUSH2 0x2602 JUMP JUMPDEST PUSH1 0x20 PUSH1 0x40 MLOAD DUP1 DUP4 SUB DUP2 PUSH1 0x0 DUP8 DUP1 EXTCODESIZE ISZERO DUP1 ISZERO PUSH2 0x1B06 JUMPI PUSH1 0x0 DUP1 REVERT JUMPDEST POP GAS CALL SWAP3 POP POP POP DUP1 ISZERO PUSH2 0x1B36 JUMPI POP PUSH1 0x40 DUP1 MLOAD PUSH1 0x1F RETURNDATASIZE SWAP1 DUP2 ADD PUSH1 0x1F NOT AND DUP3 ADD SWAP1 SWAP3 MSTORE PUSH2 0x1B33 SWAP2 DUP2 ADD SWAP1 PUSH2 0x263F JUMP JUMPDEST PUSH1 0x1 JUMPDEST PUSH2 0x1B91 JUMPI RETURNDATASIZE DUP1 DUP1 ISZERO PUSH2 0x1B64 JUMPI PUSH1 0x40 MLOAD SWAP2 POP PUSH1 0x1F NOT PUSH1 0x3F RETURNDATASIZE ADD AND DUP3 ADD PUSH1 0x40 MSTORE RETURNDATASIZE DUP3 MSTORE RETURNDATASIZE PUSH1 0x0 PUSH1 0x20 DUP5 ADD RETURNDATACOPY PUSH2 0x1B69 JUMP JUMPDEST PUSH1 0x60 SWAP2 POP JUMPDEST POP DUP1 MLOAD PUSH2 0x1B89 JUMPI PUSH1 0x40 MLOAD PUSH4 0x68D2BF6B PUSH1 0xE1 SHL DUP2 MSTORE PUSH1 0x4 ADD PUSH1 0x40 MLOAD DUP1 SWAP2 SUB SWAP1 REVERT JUMPDEST DUP1 MLOAD DUP2 PUSH1 0x20 ADD REVERT JUMPDEST PUSH1 0x1 PUSH1 0x1 PUSH1 0xE0 SHL SUB NOT AND PUSH4 0xA85BD01 PUSH1 0xE1 SHL EQ SWAP1 POP JUMPDEST SWAP5 SWAP4 POP POP POP POP JUMP JUMPDEST PUSH1 0x60 PUSH1 0xC DUP1 SLOAD PUSH2 0x7ED SWAP1 PUSH2 0x23CA JUMP JUMPDEST PUSH1 0x60 DUP2 PUSH2 0x1BE2 JUMPI POP POP PUSH1 0x40 DUP1 MLOAD DUP1 DUP3 ADD SWAP1 SWAP2 MSTORE PUSH1 0x1 DUP2 MSTORE PUSH1 0x3 PUSH1 0xFC SHL PUSH1 0x20 DUP3 ADD MSTORE SWAP1 JUMP JUMPDEST DUP2 PUSH1 0x0 JUMPDEST DUP2 ISZERO PUSH2 0x1C0C JUMPI DUP1 PUSH2 0x1BF6 DUP2 PUSH2 0x24AF JUMP JUMPDEST SWAP2 POP PUSH2 0x1C05 SWAP1 POP PUSH1 0xA DUP4 PUSH2 0x2485 JUMP JUMPDEST SWAP2 POP PUSH2 0x1BE6 JUMP JUMPDEST PUSH1 0x0 DUP2 PUSH1 0x1 PUSH1 0x1 PUSH1 0x40 SHL SUB DUP2 GT ISZERO PUSH2 0x1C26 JUMPI PUSH2 0x1C26 PUSH2 0x20B8 JUMP JUMPDEST PUSH1 0x40 MLOAD SWAP1 DUP1 DUP3 MSTORE DUP1 PUSH1 0x1F ADD PUSH1 0x1F NOT AND PUSH1 0x20 ADD DUP3 ADD PUSH1 0x40 MSTORE DUP1 ISZERO PUSH2 0x1C50 JUMPI PUSH1 0x20 DUP3 ADD DUP2 DUP1 CALLDATASIZE DUP4 CALLDATACOPY ADD SWAP1 POP JUMPDEST POP SWAP1 POP JUMPDEST DUP5 ISZERO PUSH2 0x1BA7 JUMPI PUSH2 0x1C65 PUSH1 0x1 DUP4 PUSH2 0x265C JUMP JUMPDEST SWAP2 POP PUSH2 0x1C72 PUSH1 0xA DUP7 PUSH2 0x2673 JUMP JUMPDEST PUSH2 0x1C7D SWAP1 PUSH1 0x30 PUSH2 0x24F8 JUMP JUMPDEST PUSH1 0xF8 SHL DUP2 DUP4 DUP2 MLOAD DUP2 LT PUSH2 0x1C92 JUMPI PUSH2 0x1C92 PUSH2 0x2499 JUMP JUMPDEST PUSH1 0x20 ADD ADD SWAP1 PUSH1 0x1 PUSH1 0x1 PUSH1 0xF8 SHL SUB NOT AND SWAP1 DUP2 PUSH1 0x0 BYTE SWAP1 MSTORE8 POP PUSH2 0x1CB4 PUSH1 0xA DUP7 PUSH2 0x2485 JUMP JUMPDEST SWAP5 POP PUSH2 0x1C54 JUMP JUMPDEST PUSH1 0x0 DUP3 PUSH2 0x1CC8 DUP6 DUP5 PUSH2 0x1CDE JUMP JUMPDEST EQ SWAP5 SWAP4 POP POP POP POP JUMP JUMPDEST PUSH2 0x93D DUP4 DUP4 DUP4 PUSH1 0x1 PUSH2 0x1D52 JUMP JUMPDEST PUSH1 0x0 DUP2 DUP2 JUMPDEST DUP5 MLOAD DUP2 LT ISZERO PUSH2 0x1D4A JUMPI PUSH1 0x0 DUP6 DUP3 DUP2 MLOAD DUP2 LT PUSH2 0x1D00 JUMPI PUSH2 0x1D00 PUSH2 0x2499 JUMP JUMPDEST PUSH1 0x20 MUL PUSH1 0x20 ADD ADD MLOAD SWAP1 POP DUP1 DUP4 GT PUSH2 0x1D26 JUMPI PUSH1 0x0 DUP4 DUP2 MSTORE PUSH1 0x20 DUP3 SWAP1 MSTORE PUSH1 0x40 SWAP1 KECCAK256 SWAP3 POP PUSH2 0x1D37 JUMP JUMPDEST PUSH1 0x0 DUP2 DUP2 MSTORE PUSH1 0x20 DUP5 SWAP1 MSTORE PUSH1 0x40 SWAP1 KECCAK256 SWAP3 POP JUMPDEST POP DUP1 PUSH2 0x1D42 DUP2 PUSH2 0x24AF JUMP JUMPDEST SWAP2 POP POP PUSH2 0x1CE3 JUMP JUMPDEST POP SWAP4 SWAP3 POP POP POP JUMP JUMPDEST PUSH1 0x0 SLOAD PUSH1 0x1 PUSH1 0x1 PUSH1 0xA0 SHL SUB DUP6 AND PUSH2 0x1D7B JUMPI PUSH1 0x40 MLOAD PUSH3 0x2E0763 PUSH1 0xE8 SHL DUP2 MSTORE PUSH1 0x4 ADD PUSH1 0x40 MLOAD DUP1 SWAP2 SUB SWAP1 REVERT JUMPDEST DUP4 PUSH2 0x1D99 JUMPI PUSH1 0x40 MLOAD PUSH4 0xB562E8DD PUSH1 0xE0 SHL DUP2 MSTORE PUSH1 0x4 ADD PUSH1 0x40 MLOAD DUP1 SWAP2 SUB SWAP1 REVERT JUMPDEST PUSH1 0x1 PUSH1 0x1 PUSH1 0xA0 SHL SUB DUP6 AND PUSH1 0x0 DUP2 DUP2 MSTORE PUSH1 0x5 PUSH1 0x20 SWAP1 DUP2 MSTORE PUSH1 0x40 DUP1 DUP4 KECCAK256 DUP1 SLOAD PUSH16 0xFFFFFFFFFFFFFFFFFFFFFFFFFFFFFFFF NOT DUP2 AND PUSH1 0x1 PUSH1 0x1 PUSH1 0x40 SHL SUB DUP1 DUP4 AND DUP13 ADD DUP2 AND SWAP2 DUP3 OR PUSH9 0x10000000000000000 PUSH8 0xFFFFFFFFFFFFFFFF NOT SWAP1 SWAP5 AND SWAP1 SWAP3 OR DUP4 SWAP1 DIV DUP2 AND DUP13 ADD DUP2 AND SWAP1 SWAP3 MUL OR SWAP1 SWAP2 SSTORE DUP6 DUP5 MSTORE PUSH1 0x4 SWAP1 SWAP3 MSTORE SWAP1 SWAP2 KECCAK256 DUP1 SLOAD PUSH1 0x1 PUSH1 0x1 PUSH1 0xE0 SHL SUB NOT AND SWAP1 SWAP3 OR PUSH1 0x1 PUSH1 0xA0 SHL TIMESTAMP SWAP1 SWAP3 AND SWAP2 SWAP1 SWAP2 MUL OR SWAP1 SSTORE DUP1 DUP1 DUP6 ADD DUP4 DUP1 ISZERO PUSH2 0x1E4A JUMPI POP PUSH1 0x1 PUSH1 0x1 PUSH1 0xA0 SHL SUB DUP8 AND EXTCODESIZE ISZERO ISZERO JUMPDEST ISZERO PUSH2 0x1ED3 JUMPI JUMPDEST PUSH1 0x40 MLOAD DUP3 SWAP1 PUSH1 0x1 PUSH1 0x1 PUSH1 0xA0 SHL SUB DUP10 AND SWAP1 PUSH1 0x0 SWAP1 PUSH32 0xDDF252AD1BE2C89B69C2B068FC378DAA952BA7F163C4A11628F55A4DF523B3EF SWAP1 DUP3 SWAP1 LOG4 PUSH2 0x1E9B PUSH1 0x0 DUP9 DUP5 DUP1 PUSH1 0x1 ADD SWAP6 POP DUP9 PUSH2 0x1AB7 JUMP JUMPDEST PUSH2 0x1EB8 JUMPI PUSH1 0x40 MLOAD PUSH4 0x68D2BF6B PUSH1 0xE1 SHL DUP2 MSTORE PUSH1 0x4 ADD PUSH1 0x40 MLOAD DUP1 SWAP2 SUB SWAP1 REVERT JUMPDEST DUP1 DUP3 EQ ISZERO PUSH2 0x1E50 JUMPI DUP3 PUSH1 0x0 SLOAD EQ PUSH2 0x1ECE JUMPI PUSH1 0x0 DUP1 REVERT JUMPDEST PUSH2 0x1F19 JUMP JUMPDEST JUMPDEST PUSH1 0x40 MLOAD PUSH1 0x1 DUP4 ADD SWAP3 SWAP1 PUSH1 0x1 PUSH1 0x1 PUSH1 0xA0 SHL SUB DUP10 AND SWAP1 PUSH1 0x0 SWAP1 PUSH32 0xDDF252AD1BE2C89B69C2B068FC378DAA952BA7F163C4A11628F55A4DF523B3EF SWAP1 DUP3 SWAP1 LOG4 DUP1 DUP3 EQ ISZERO PUSH2 0x1ED4 JUMPI JUMPDEST POP PUSH1 0x0 SSTORE PUSH2 0x191D JUMP JUMPDEST DUP3 DUP1 SLOAD PUSH2 0x1F2E SWAP1 PUSH2 0x23CA JUMP JUMPDEST SWAP1 PUSH1 0x0 MSTORE PUSH1 0x20 PUSH1 0x0 KECCAK256 SWAP1 PUSH1 0x1F ADD PUSH1 0x20 SWAP1 DIV DUP2 ADD SWAP3 DUP3 PUSH2 0x1F50 JUMPI PUSH1 0x0 DUP6 SSTORE PUSH2 0x1F96 JUMP JUMPDEST DUP3 PUSH1 0x1F LT PUSH2 0x1F69 JUMPI DUP1 MLOAD PUSH1 0xFF NOT AND DUP4 DUP1 ADD OR DUP6 SSTORE PUSH2 0x1F96 JUMP JUMPDEST DUP3 DUP1 ADD PUSH1 0x1 ADD DUP6 SSTORE DUP3 ISZERO PUSH2 0x1F96 JUMPI SWAP2 DUP3 ADD JUMPDEST DUP3 DUP2 GT ISZERO PUSH2 0x1F96 JUMPI DUP3 MLOAD DUP3 SSTORE SWAP2 PUSH1 0x20 ADD SWAP2 SWAP1 PUSH1 0x1 ADD SWAP1 PUSH2 0x1F7B JUMP JUMPDEST POP PUSH2 0x1FA2 SWAP3 SWAP2 POP PUSH2 0x1FA6 JUMP JUMPDEST POP SWAP1 JUMP JUMPDEST JUMPDEST DUP1 DUP3 GT ISZERO PUSH2 0x1FA2 JUMPI PUSH1 0x0 DUP2 SSTORE PUSH1 0x1 ADD PUSH2 0x1FA7 JUMP JUMPDEST PUSH1 0x1 PUSH1 0x1 PUSH1 0xE0 SHL SUB NOT DUP2 AND DUP2 EQ PUSH2 0x169E JUMPI PUSH1 0x0 DUP1 REVERT JUMPDEST PUSH1 0x0 PUSH1 0x20 DUP3 DUP5 SUB SLT ISZERO PUSH2 0x1FE3 JUMPI PUSH1 0x0 DUP1 REVERT JUMPDEST DUP2 CALLDATALOAD PUSH2 0x12B4 DUP2 PUSH2 0x1FBB JUMP JUMPDEST PUSH1 0x0 JUMPDEST DUP4 DUP2 LT ISZERO PUSH2 0x2009 JUMPI DUP2 DUP2 ADD MLOAD DUP4 DUP3 ADD MSTORE PUSH1 0x20 ADD PUSH2 0x1FF1 JUMP JUMPDEST DUP4 DUP2 GT ISZERO PUSH2 0x1145 JUMPI POP POP PUSH1 0x0 SWAP2 ADD MSTORE JUMP JUMPDEST PUSH1 0x0 DUP2 MLOAD DUP1 DUP5 MSTORE PUSH2 0x2032 DUP2 PUSH1 0x20 DUP7 ADD PUSH1 0x20 DUP7 ADD PUSH2 0x1FEE JUMP JUMPDEST PUSH1 0x1F ADD PUSH1 0x1F NOT AND SWAP3 SWAP1 SWAP3 ADD PUSH1 0x20 ADD SWAP3 SWAP2 POP POP JUMP JUMPDEST PUSH1 0x20 DUP2 MSTORE PUSH1 0x0 PUSH2 0x12B4 PUSH1 0x20 DUP4 ADD DUP5 PUSH2 0x201A JUMP JUMPDEST PUSH1 0x0 PUSH1 0x20 DUP3 DUP5 SUB SLT ISZERO PUSH2 0x206B JUMPI PUSH1 0x0 DUP1 REVERT JUMPDEST POP CALLDATALOAD SWAP2 SWAP1 POP JUMP JUMPDEST DUP1 CALLDATALOAD PUSH1 0x1 PUSH1 0x1 PUSH1 0xA0 SHL SUB DUP2 AND DUP2 EQ PUSH2 0x2089 JUMPI PUSH1 0x0 DUP1 REVERT JUMPDEST SWAP2 SWAP1 POP JUMP JUMPDEST PUSH1 0x0 DUP1 PUSH1 0x40 DUP4 DUP6 SUB SLT ISZERO PUSH2 0x20A1 JUMPI PUSH1 0x0 DUP1 REVERT JUMPDEST PUSH2 0x20AA DUP4 PUSH2 0x2072 JUMP JUMPDEST SWAP5 PUSH1 0x20 SWAP4 SWAP1 SWAP4 ADD CALLDATALOAD SWAP4 POP POP POP JUMP JUMPDEST PUSH4 0x4E487B71 PUSH1 0xE0 SHL PUSH1 0x0 MSTORE PUSH1 0x41 PUSH1 0x4 MSTORE PUSH1 0x24 PUSH1 0x0 REVERT JUMPDEST PUSH1 0x0 PUSH1 0x1 PUSH1 0x1 PUSH1 0x40 SHL SUB DUP1 DUP5 GT ISZERO PUSH2 0x20E8 JUMPI PUSH2 0x20E8 PUSH2 0x20B8 JUMP JUMPDEST PUSH1 0x40 MLOAD PUSH1 0x1F DUP6 ADD PUSH1 0x1F NOT SWAP1 DUP2 AND PUSH1 0x3F ADD AND DUP2 ADD SWAP1 DUP3 DUP3 GT DUP2 DUP4 LT OR ISZERO PUSH2 0x2110 JUMPI PUSH2 0x2110 PUSH2 0x20B8 JUMP JUMPDEST DUP2 PUSH1 0x40 MSTORE DUP1 SWAP4 POP DUP6 DUP2 MSTORE DUP7 DUP7 DUP7 ADD GT ISZERO PUSH2 0x2129 JUMPI PUSH1 0x0 DUP1 REVERT JUMPDEST DUP6 DUP6 PUSH1 0x20 DUP4 ADD CALLDATACOPY PUSH1 0x0 PUSH1 0x20 DUP8 DUP4 ADD ADD MSTORE POP POP POP SWAP4 SWAP3 POP POP POP JUMP JUMPDEST PUSH1 0x0 PUSH1 0x20 DUP3 DUP5 SUB SLT ISZERO PUSH2 0x2155 JUMPI PUSH1 0x0 DUP1 REVERT JUMPDEST DUP2 CALLDATALOAD PUSH1 0x1 PUSH1 0x1 PUSH1 0x40 SHL SUB DUP2 GT ISZERO PUSH2 0x216B JUMPI PUSH1 0x0 DUP1 REVERT JUMPDEST DUP3 ADD PUSH1 0x1F DUP2 ADD DUP5 SGT PUSH2 0x217C JUMPI PUSH1 0x0 DUP1 REVERT JUMPDEST PUSH2 0x1BA7 DUP5 DUP3 CALLDATALOAD PUSH1 0x20 DUP5 ADD PUSH2 0x20CE JUMP JUMPDEST DUP1 CALLDATALOAD DUP1 ISZERO ISZERO DUP2 EQ PUSH2 0x2089 JUMPI PUSH1 0x0 DUP1 REVERT JUMPDEST PUSH1 0x0 PUSH1 0x20 DUP3 DUP5 SUB SLT ISZERO PUSH2 0x21AD JUMPI PUSH1 0x0 DUP1 REVERT JUMPDEST PUSH2 0x12B4 DUP3 PUSH2 0x218B JUMP JUMPDEST PUSH1 0x0 DUP1 PUSH1 0x0 PUSH1 0x60 DUP5 DUP7 SUB SLT ISZERO PUSH2 0x21CB JUMPI PUSH1 0x0 DUP1 REVERT JUMPDEST PUSH2 0x21D4 DUP5 PUSH2 0x2072 JUMP JUMPDEST SWAP3 POP PUSH2 0x21E2 PUSH1 0x20 DUP6 ADD PUSH2 0x2072 JUMP JUMPDEST SWAP2 POP PUSH1 0x40 DUP5 ADD CALLDATALOAD SWAP1 POP SWAP3 POP SWAP3 POP SWAP3 JUMP JUMPDEST PUSH1 0x0 PUSH1 0x20 DUP3 DUP5 SUB SLT ISZERO PUSH2 0x2204 JUMPI PUSH1 0x0 DUP1 REVERT JUMPDEST PUSH2 0x12B4 DUP3 PUSH2 0x2072 JUMP JUMPDEST PUSH1 0x20 DUP1 DUP3 MSTORE DUP3 MLOAD DUP3 DUP3 ADD DUP2 SWAP1 MSTORE PUSH1 0x0 SWAP2 SWAP1 DUP5 DUP3 ADD SWAP1 PUSH1 0x40 DUP6 ADD SWAP1 DUP5 JUMPDEST DUP2 DUP2 LT ISZERO PUSH2 0x2245 JUMPI DUP4 MLOAD DUP4 MSTORE SWAP3 DUP5 ADD SWAP3 SWAP2 DUP5 ADD SWAP2 PUSH1 0x1 ADD PUSH2 0x2229 JUMP JUMPDEST POP SWAP1 SWAP7 SWAP6 POP POP POP POP POP POP JUMP JUMPDEST PUSH1 0x0 DUP1 PUSH1 0x40 DUP4 DUP6 SUB SLT ISZERO PUSH2 0x2264 JUMPI PUSH1 0x0 DUP1 REVERT JUMPDEST PUSH2 0x226D DUP4 PUSH2 0x2072 JUMP JUMPDEST SWAP2 POP PUSH2 0x227B PUSH1 0x20 DUP5 ADD PUSH2 0x218B JUMP JUMPDEST SWAP1 POP SWAP3 POP SWAP3 SWAP1 POP JUMP JUMPDEST PUSH1 0x0 DUP1 PUSH1 0x0 DUP1 PUSH1 0x80 DUP6 DUP8 SUB SLT ISZERO PUSH2 0x229A JUMPI PUSH1 0x0 DUP1 REVERT JUMPDEST PUSH2 0x22A3 DUP6 PUSH2 0x2072 JUMP JUMPDEST SWAP4 POP PUSH2 0x22B1 PUSH1 0x20 DUP7 ADD PUSH2 0x2072 JUMP JUMPDEST SWAP3 POP PUSH1 0x40 DUP6 ADD CALLDATALOAD SWAP2 POP PUSH1 0x60 DUP6 ADD CALLDATALOAD PUSH1 0x1 PUSH1 0x1 PUSH1 0x40 SHL SUB DUP2 GT ISZERO PUSH2 0x22D3 JUMPI PUSH1 0x0 DUP1 REVERT JUMPDEST DUP6 ADD PUSH1 0x1F DUP2 ADD DUP8 SGT PUSH2 0x22E4 JUMPI PUSH1 0x0 DUP1 REVERT JUMPDEST PUSH2 0x22F3 DUP8 DUP3 CALLDATALOAD PUSH1 0x20 DUP5 ADD PUSH2 0x20CE JUMP JUMPDEST SWAP2 POP POP SWAP3 SWAP6 SWAP2 SWAP5 POP SWAP3 POP JUMP JUMPDEST PUSH1 0x0 DUP1 PUSH1 0x0 PUSH1 0x40 DUP5 DUP7 SUB SLT ISZERO PUSH2 0x2314 JUMPI PUSH1 0x0 DUP1 REVERT JUMPDEST DUP4 CALLDATALOAD SWAP3 POP PUSH1 0x20 DUP5 ADD CALLDATALOAD PUSH1 0x1 PUSH1 0x1 PUSH1 0x40 SHL SUB DUP1 DUP3 GT ISZERO PUSH2 0x2332 JUMPI PUSH1 0x0 DUP1 REVERT JUMPDEST DUP2 DUP7 ADD SWAP2 POP DUP7 PUSH1 0x1F DUP4 ADD SLT PUSH2 0x2346 JUMPI PUSH1 0x0 DUP1 REVERT JUMPDEST DUP2 CALLDATALOAD DUP2 DUP2 GT ISZERO PUSH2 0x2355 JUMPI PUSH1 0x0 DUP1 REVERT JUMPDEST DUP8 PUSH1 0x20 DUP3 PUSH1 0x5 SHL DUP6 ADD ADD GT ISZERO PUSH2 0x236A JUMPI PUSH1 0x0 DUP1 REVERT JUMPDEST PUSH1 0x20 DUP4 ADD SWAP5 POP DUP1 SWAP4 POP POP POP POP SWAP3 POP SWAP3 POP SWAP3 JUMP JUMPDEST PUSH1 0x0 DUP1 PUSH1 0x40 DUP4 DUP6 SUB SLT ISZERO PUSH2 0x2390 JUMPI PUSH1 0x0 DUP1 REVERT JUMPDEST PUSH2 0x2399 DUP4 PUSH2 0x2072 JUMP JUMPDEST SWAP2 POP PUSH2 0x227B PUSH1 0x20 DUP5 ADD PUSH2 0x2072 JUMP JUMPDEST PUSH1 0x0 DUP1 PUSH1 0x40 DUP4 DUP6 SUB SLT ISZERO PUSH2 0x23BA JUMPI PUSH1 0x0 DUP1 REVERT JUMPDEST DUP3 CALLDATALOAD SWAP2 POP PUSH2 0x227B PUSH1 0x20 DUP5 ADD PUSH2 0x2072 JUMP JUMPDEST PUSH1 0x1 DUP2 DUP2 SHR SWAP1 DUP3 AND DUP1 PUSH2 0x23DE JUMPI PUSH1 0x7F DUP3 AND SWAP2 POP JUMPDEST PUSH1 0x20 DUP3 LT DUP2 EQ ISZERO PUSH2 0x23FF JUMPI PUSH4 0x4E487B71 PUSH1 0xE0 SHL PUSH1 0x0 MSTORE PUSH1 0x22 PUSH1 0x4 MSTORE PUSH1 0x24 PUSH1 0x0 REVERT JUMPDEST POP SWAP2 SWAP1 POP JUMP JUMPDEST PUSH1 0x20 DUP1 DUP3 MSTORE DUP2 DUP2 ADD MSTORE PUSH32 0x4F776E61626C653A2063616C6C6572206973206E6F7420746865206F776E6572 PUSH1 0x40 DUP3 ADD MSTORE PUSH1 0x60 ADD SWAP1 JUMP JUMPDEST PUSH4 0x4E487B71 PUSH1 0xE0 SHL PUSH1 0x0 MSTORE PUSH1 0x11 PUSH1 0x4 MSTORE PUSH1 0x24 PUSH1 0x0 REVERT JUMPDEST PUSH1 0x0 DUP2 PUSH1 0x0 NOT DIV DUP4 GT DUP3 ISZERO ISZERO AND ISZERO PUSH2 0x246A JUMPI PUSH2 0x246A PUSH2 0x243A JUMP JUMPDEST POP MUL SWAP1 JUMP JUMPDEST PUSH4 0x4E487B71 PUSH1 0xE0 SHL PUSH1 0x0 MSTORE PUSH1 0x12 PUSH1 0x4 MSTORE PUSH1 0x24 PUSH1 0x0 REVERT JUMPDEST PUSH1 0x0 DUP3 PUSH2 0x2494 JUMPI PUSH2 0x2494 PUSH2 0x246F JUMP JUMPDEST POP DIV SWAP1 JUMP JUMPDEST PUSH4 0x4E487B71 PUSH1 0xE0 SHL PUSH1 0x0 MSTORE PUSH1 0x32 PUSH1 0x4 MSTORE PUSH1 0x24 PUSH1 0x0 REVERT JUMPDEST PUSH1 0x0 PUSH1 0x0 NOT DUP3 EQ ISZERO PUSH2 0x24C3 JUMPI PUSH2 0x24C3 PUSH2 0x243A JUMP JUMPDEST POP PUSH1 0x1 ADD SWAP1 JUMP JUMPDEST PUSH1 0x20 DUP1 DUP3 MSTORE PUSH1 0x14 SWAP1 DUP3 ADD MSTORE PUSH20 0x496E76616C6964206D696E7420616D6F756E7421 PUSH1 0x60 SHL PUSH1 0x40 DUP3 ADD MSTORE PUSH1 0x60 ADD SWAP1 JUMP JUMPDEST PUSH1 0x0 DUP3 NOT DUP3 GT ISZERO PUSH2 0x250B JUMPI PUSH2 0x250B PUSH2 0x243A JUMP JUMPDEST POP ADD SWAP1 JUMP JUMPDEST PUSH1 0x20 DUP1 DUP3 MSTORE PUSH1 0x14 SWAP1 DUP3 ADD MSTORE PUSH20 0x4D617820737570706C7920657863656564656421 PUSH1 0x60 SHL PUSH1 0x40 DUP3 ADD MSTORE PUSH1 0x60 ADD SWAP1 JUMP JUMPDEST PUSH1 0x0 DUP5 MLOAD PUSH1 0x20 PUSH2 0x2551 DUP3 DUP6 DUP4 DUP11 ADD PUSH2 0x1FEE JUMP JUMPDEST DUP6 MLOAD SWAP2 DUP5 ADD SWAP2 PUSH2 0x2564 DUP2 DUP5 DUP5 DUP11 ADD PUSH2 0x1FEE JUMP JUMPDEST DUP6 SLOAD SWAP3 ADD SWAP2 PUSH1 0x0 SWAP1 PUSH1 0x1 DUP2 DUP2 SHR SWAP1 DUP1 DUP4 AND DUP1 PUSH2 0x2581 JUMPI PUSH1 0x7F DUP4 AND SWAP3 POP JUMPDEST DUP6 DUP4 LT DUP2 EQ ISZERO PUSH2 0x259F JUMPI PUSH4 0x4E487B71 PUSH1 0xE0 SHL DUP6 MSTORE PUSH1 0x22 PUSH1 0x4 MSTORE PUSH1 0x24 DUP6 REVERT JUMPDEST DUP1 DUP1 ISZERO PUSH2 0x25B3 JUMPI PUSH1 0x1 DUP2 EQ PUSH2 0x25C4 JUMPI PUSH2 0x25F1 JUMP JUMPDEST PUSH1 0xFF NOT DUP6 AND DUP9 MSTORE DUP4 DUP9 ADD SWAP6 POP PUSH2 0x25F1 JUMP JUMPDEST PUSH1 0x0 DUP12 DUP2 MSTORE PUSH1 0x20 SWAP1 KECCAK256 PUSH1 0x0 JUMPDEST DUP6 DUP2 LT ISZERO PUSH2 0x25E9 JUMPI DUP2 SLOAD DUP11 DUP3 ADD MSTORE SWAP1 DUP5 ADD SWAP1 DUP9 ADD PUSH2 0x25D0 JUMP JUMPDEST POP POP DUP4 DUP9 ADD SWAP6 POP JUMPDEST POP SWAP4 SWAP12 SWAP11 POP POP POP POP POP POP POP POP POP POP POP JUMP JUMPDEST PUSH1 0x1 PUSH1 0x1 PUSH1 0xA0 SHL SUB DUP6 DUP2 AND DUP3 MSTORE DUP5 AND PUSH1 0x20 DUP3 ADD MSTORE PUSH1 0x40 DUP2 ADD DUP4 SWAP1 MSTORE PUSH1 0x80 PUSH1 0x60 DUP3 ADD DUP2 SWAP1 MSTORE PUSH1 0x0 SWAP1 PUSH2 0x2635 SWAP1 DUP4 ADD DUP5 PUSH2 0x201A JUMP JUMPDEST SWAP7 SWAP6 POP POP POP POP POP POP JUMP JUMPDEST PUSH1 0x0 PUSH1 0x20 DUP3 DUP5 SUB SLT ISZERO PUSH2 0x2651 JUMPI PUSH1 0x0 DUP1 REVERT JUMPDEST DUP2 MLOAD PUSH2 0x12B4 DUP2 PUSH2 0x1FBB JUMP JUMPDEST PUSH1 0x0 DUP3 DUP3 LT ISZERO PUSH2 0x266E JUMPI PUSH2 0x266E PUSH2 0x243A JUMP JUMPDEST POP SUB SWAP1 JUMP JUMPDEST PUSH1 0x0 DUP3 PUSH2 0x2682 JUMPI PUSH2 0x2682 PUSH2 0x246F JUMP JUMPDEST POP MOD SWAP1 JUMP INVALID LOG2 PUSH5 0x6970667358 0x22 SLT KECCAK256 SGT DUP5 POP 0xB2 0x2E SWAP1 LOG3 CALLVALUE 0x26 SWAP15 0xBB 0xE2 0xEC 0xBE SWAP4 0x1F 0x4B MLOAD 0xD8 BYTE PC 0xE3 0x24 PUSH26 0x1376766BEA89B0DC64736F6C634300080900334F776E61626C65 GASPRICE KECCAK256 PUSH4 0x616C6C65 PUSH19 0x206973206E6F7420746865206F776E65720000 "
        },
        "methodIdentifiers": {
          "approve(address,uint256)": "095ea7b3",
          "balanceOf(address)": "70a08231",
          "cost()": "13faede6",
          "getApproved(uint256)": "081812fc",
          "hiddenMetadataUri()": "a45ba8e7",
          "isApprovedForAll(address,address)": "e985e9c5",
          "maxMintAmountPerTx()": "94354fd0",
          "maxSupply()": "d5abeb01",
          "merkleRoot()": "2eb4a7ab",
          "mint(uint256)": "a0712d68",
          "mintForAddress(uint256,address)": "efbd73f4",
          "name()": "06fdde03",
          "owner()": "8da5cb5b",
          "ownerOf(uint256)": "6352211e",
          "paused()": "5c975abb",
          "renounceOwnership()": "715018a6",
          "revealed()": "51830227",
          "safeTransferFrom(address,address,uint256)": "42842e0e",
          "safeTransferFrom(address,address,uint256,bytes)": "b88d4fde",
          "setApprovalForAll(address,bool)": "a22cb465",
          "setCost(uint256)": "44a0d68a",
          "setHiddenMetadataUri(string)": "4fdd43cb",
          "setMaxMintAmountPerTx(uint256)": "b071401b",
          "setMerkleRoot(bytes32)": "7cb64759",
          "setPaused(bool)": "16c38b3c",
          "setRevealed(bool)": "e0a80853",
          "setUriPrefix(string)": "7ec4a659",
          "setUriSuffix(string)": "16ba10e0",
          "setWhitelistMintEnabled(bool)": "b767a098",
          "supportsInterface(bytes4)": "01ffc9a7",
          "symbol()": "95d89b41",
          "tokenURI(uint256)": "c87b56dd",
          "totalSupply()": "18160ddd",
          "transferFrom(address,address,uint256)": "23b872dd",
          "transferOwnership(address)": "f2fde38b",
          "uriPrefix()": "62b99ad4",
          "uriSuffix()": "5503a0e8",
          "walletOfOwner(address)": "438b6300",
          "whitelistClaimed(address)": "db4bec44",
          "whitelistMint(uint256,bytes32[])": "d2cab056",
          "whitelistMintEnabled()": "6caede3d",
          "withdraw()": "3ccfd60b"
        }
      }
    }
  }
}